:100000000C9435000C945D000C945D000C94190464
:100010000C945D000C940E030C945D000C945D0038
:100020000C945D000C945D000C945D000C945D00DC
:100030000C945D000C945D000C945D000C945D00CC
:100040000C943F040C945D000C945D000C945D00D6
:100050000C945D000C945D000C945D000C945D00AC
:100060000C945D000C945D00640411241FBECFEF5E
:10007000D8E0DEBFCDBF13E0A0E0B1E0E8E3F9E1F6
:1000800002C005900D92A23DB107D9F724E0A2ED80
:10009000B3E001C01D92A231B207E1F710E0C5E361
:1000A000D0E004C02197FE010E94850CC433D10723
:1000B000C9F70E946B040C949A0C0C940000909168
:1000C000C00095FFFCCF8093C60008950F931F9347
:1000D000CF93DF93CDB7DEB761970FB6F894DEBF4D
:1000E0000FBECDBFBC01198A8E010F5E1F4F2AE0E3
:1000F00030E0CB01B9010E94300C805DF8018293A1
:100100008F0161157105A9F7F80181918F010E9496
:100110005F00F80180818111F7CF61960FB6F894E6
:10012000DEBF0FBECDBFDF91CF911F910F9108951C
:100130008F929F92AF92BF920F931F93CF93DF93B3
:10014000CDB7DEB7A1970FB6F894DEBF0FBECDBF17
:1001500019A2423008F44AE08E010F5D1F4F842E31
:10016000912CA12CB12CA50194010E94580CE62FD2
:10017000B901CA0101501109EA3014F4E05D01C06F
:10018000E95CD801EC93232B242B252B61F7F80194
:1001900081918F010E945F00D8018C918111F7CF6E
:1001A000A1960FB6F894DEBF0FBECDBFDF91CF9101
:1001B0001F910F91BF90AF909F908F90089542E054
:1001C0000E9498008AE00C945F00EF92FF920F93D8
:1001D0001F93CF93DF93CDB7DEB762970FB6F89436
:1001E000DEBF0FBECDBF7C0197FF08C08DE26A8BDA
:1001F0000E945F00F194E194F1086A89198A6230E3
:1002000008F46AE08E010F5E1F4F262F30E0C70111
:10021000B9010E94440C7B01015011098A3014F489
:1002200090E301C097E3980FF8019083672B79F76B
:10023000F80181918F010E945F00F8018081811196
:10024000F7CF62960FB6F894DEBF0FBECDBFDF9139
:10025000CF911F910F91FF90EF9008950F931F93EF
:10026000CF93DF938C019C01E9012F5F3F4F4881C1
:100270004111FACFC81BD90B49F0C80FC01731F094
:10028000F80181918F010E945F00F8CFDF91CF913B
:100290001F910F9108958F929F92AF92BF92CF922C
:1002A000DF92EF92FF926B017C012FEF3FEF4FE760
:1002B0005FE40E94BE0B181664F488E191E0FF90A1
:1002C000EF90DF90CF90BF90AF909F908F900C9465
:1002D0002E012FEF3FEF4FE75FECC701B6010E9401
:1002E000D10A87FDEACF20E030E0A901C701B601BD
:1002F0000E94D10A87FF07C08DE20E945F00F7FAD3
:10030000F094F7F8F0942AE037ED43EA5BE3C70195
:10031000B6010E94650A4B015C010E94DD0A6B0177
:100320007C010E940C0B9B01AC01C501B4010E9431
:10033000640A4B015C014AE0C701B6010E949800C3
:100340008EE20E945F0020E030E040E251E4C5010F
:10035000B4010E94C30B4B015C010E94DD0A6B01DA
:100360007C01CB010E946600B60180E090E00E9413
:100370000C0B9B01AC01C501B4010E94640A20E092
:1003800030E040E251E40E94C30B0E94DD0ACB0141
:10039000FF90EF90DF90CF90BF90AF909F908F90A5
:1003A0000C9466000E942E018AE00C945F000F936B
:1003B0001F93CF938C01C62F8CE191E00E942E01F8
:1003C000C8010E942E0188E291E00E942E0160E1A6
:1003D0008C2F90E00E94E50089E391E0CF911F917E
:1003E0000F910C94D201CF93DF93EC018CE191E05B
:1003F0000E942E01CE01DF91CF910C94D2018BE3AC
:1004000091E00E942E018091B900887F60E190E028
:100410000E94E50089E391E00C94D201882311F059
:1004200084EC01C084E88093BC008091BC0087FF0D
:10043000FCCF8091B900887F803529F08091B90088
:10044000887F883519F48091BB0008950E94FF01D0
:10045000FACFCF93DF93D82F81E00E940E02C82FEE
:100460008D2F0E940E022C2F30E0322F2227A9015F
:10047000482BCA01DF91CF9108958093BB0084E897
:100480008093BC008091BC0087FFFCCF8091B900B5
:10049000887F883259F08091B900887F803321F4B9
:1004A00081E691E00C94F3010C94FF0108951F93F1
:1004B000CF93DF931F92CDB7DEB7182F84EA8093D6
:1004C000BC008091BC0087FFFCCF8091B900887F81
:1004D000883029F08091B900887F8031B9F5812F6B
:1004E000880F862B8093BB0084E88093BC008091AA
:1004F000BC0087FFFCCF2091B900287F30E061115C
:1005000003C088E190E002C080E490E0281739073A
:1005100021F18091B900887F883421F4612F8FE622
:1005200091E008C08091B900887F803249F4612F42
:1005300083E891E00F90DF91CF911F910C94D70148
:100540000F90DF91CF911F910C94FF0187E991E00B
:1005500069830E94F3016981C2CF0F90DF91CF912F
:100560001F9108950F931F93CF93DF93EC0160E0E9
:1005700088E60E9457028BE30E943D0261E088E614
:100580000E94570281E00E9429020EEE13E0F8015A
:1005900020813181820F931F9983888381E00E949B
:1005A0002902F80122813381820F931F9B838A8362
:1005B00081E00E942902F80124813581820F931F76
:1005C0009D838C8381E00E9429029B8B8A8B81E032
:1005D0000E942902F80126813781820F931F9D8B8B
:1005E0008C8B81E00E942902F80120853185820FE1
:1005F000931F9F8B8E8B80E00E942902F801228539
:100600003385820F931F998F888F84E98093BC0074
:10061000CE01DF91CF911F910F9108951F920F92FC
:100620000FB60F921124CF92DF92EF92FF920F93A9
:100630001F932F933F934F935F936F937F938F936A
:100640009F93AF93BF93EF9329B13091100432275A
:10065000F8948091D2039091D303A091D403B091E8
:10066000D50346B5BA2FA92F982F8827842B7894C5
:1006700020931004789432FF32C04091D6035091F9
:10068000D7036091D8037091D90322FD20C07C016B
:100690008D01E41AF50A060B170BB801A7016701D3
:1006A00078010DEDC01A05E0D00AE108F1081BE859
:1006B000C1161AE0D106E104F10488F44093000168
:1006C00050930101609302017093030108C080936D
:1006D000D6039093D703A093D803B093D90334FFE4
:1006E00032C04091DA035091DB036091DC037091DA
:1006F000DD0324FD20C07C018D01E41AF50A060B00
:10070000170BB801A701670178010DEDC01A05E0CC
:10071000D00AE108F1081BE8C1161AE0D106E1048D
:10072000F10488F44093040150930501609306019D
:100730007093070108C08093DA039093DB03A093C2
:10074000DC03B093DD0335FF32C04091DE035091EE
:10075000DF036091E0037091E10325FD20C07C017F
:100760008D01E41AF50A060B170BB801A701670102
:1007700078010DEDC01A05E0D00AE108F1081BE888
:10078000C1161AE0D106E104F10488F4409308018F
:100790005093090160930A0170930B0108C0809384
:1007A000DE039093DF03A093E003B093E10336FFF1
:1007B0002AC04091E2035091E3036091E4037091F9
:1007C000E50326FD18C0841B950BA60BB70BAC01E7
:1007D000BD014D5D5540610971094B385A406105B5
:1007E000710588F480930C0190930D01A0930E0184
:1007F000B0930F0108C08093E2039093E303A093AA
:10080000E403B093E503EF91BF91AF919F918F9176
:100810007F916F915F914F913F912F911F910F9118
:10082000FF90EF90DF90CF900F900FBE0F901F9032
:1008300018951F920F920FB60F9211242F933F938A
:100840004F935F936F937F938F939F93AF93BF93D8
:10085000EF93FF9380EC93E00E94D201FF91EF9120
:10086000BF91AF919F918F917F916F915F914F91C8
:100870003F912F910F900FBE0F901F9018951F92D0
:100880000F920FB60F9211248F939F93AF93BF9344
:100890008091D2039091D303A091D403B091D5035A
:1008A0000196A11DB11D8093D2039093D303A09311
:1008B000D403B093D503BF91AF919F918F910F90C7
:1008C0000FBE0F901F90189583B18093110489B1CA
:1008D000809310040895CF93DF93CDB7DEB7C05552
:1008E000D1090FB6F894DEBF0FBECDBF8091C10015
:1008F00088608093C10088E08093C40087EA91E01B
:100900000E94D20110926400539A84B18E6084B91F
:1009100080918000816A809380008091B000816A1C
:100920008093B000809181008360809381008091EA
:10093000B10084608093B1008BB1846F8BB9289A29
:1009400080916B00816080936B0080916D00846F5B
:1009500080936D008091680085608093680080912D
:1009600064008F77809364008CE08093B80080915E
:10097000B9008C7F8093B90060E088E60E9457023E
:100980008BE60E943D0280E80E943D0214E910932C
:10099000BC000FEF20E732E0015020403040E1F78B
:1009A00000C0000060E088E60E9457028BE60E94CB
:1009B0003D0283E00E943D0260E088E60E9457020B
:1009C0008AE10E943D0280E00E943D0288E10E948F
:1009D0003D0280E10E943D0280E00E943D0260E015
:1009E00088E60E94570287E30E943D0282E00E944F
:1009F0003D021093BC008FE99FE00197F1F700C022
:100A000000001092EF031092EE031092F103109287
:100A1000F0031092F3031092F2031092F503109278
:100A2000F4031092F7031092F6031092F903109258
:100A3000F8038E01055E1F4F88E1D8011D928A954B
:100A4000E9F7E12CF12CCE0101960E94B202BFEF32
:100A5000EB16F10409F00CF46CC089819A81092E1F
:100A6000000CAA0BBB0B4B8D5C8D6D8D7E8D840FA6
:100A7000951FA61FB71F8B8F9C8FAD8FBE8F8B814D
:100A80009C81092E000CAA0BBB0B4F8D58A169A1AC
:100A90007AA1840F951FA61FB71F8F8F98A3A9A3B4
:100AA000BAA38D819E81092E000CAA0BBB0B4BA112
:100AB0005CA16DA17EA1840F951FA61FB71F8BA3FC
:100AC0009CA3ADA3BEA38D899E89092E000CAA0B01
:100AD000BB0B4FA158A569A57AA5840F951FA61F2A
:100AE000B71F8FA398A7A9A7BAA78F89988D092E9A
:100AF000000CAA0BBB0B4BA55CA56DA57EA5840FB6
:100B0000951FA61FB71F8BA79CA7ADA7BEA7898D52
:100B10009A8D092E000CAA0BBB0B4FA558A969A9E9
:100B20007AA9840F951FA61FB71F8FA798ABA9ABF3
:100B3000BAABEFE1F3E03197F1F700C00000FFEF4F
:100B4000EF1AFF0AE11422E0F20609F07CCFF80167
:100B50002EEE33E0AE014D5C5F4F81919191A191FA
:100B6000B191892F9A2FAB2FBB27A7FDBA959195ED
:100B700081959109D9018D939D939D01E417F50706
:100B800061F78091F2039091F303905F9093F303E8
:100B90008093F20360E08EE10E94570280E00E94A1
:100BA0003D0280E70E943D0280E20E943D0280E01B
:100BB0000E943D0204E90093BC0060E087E70E94C8
:100BC00057028AEA0E943D0261E087E70E945702CD
:100BD00081E00E9429029093FB038093FA0381E055
:100BE0000E9429029093FD038093FC0381E00E9400
:100BF00029029093FF038093FE0381E00E94290263
:100C0000909301048093000481E00E942902909354
:100C100003048093020481E00E942902909305045A
:100C20008093040481E00E9429029093070480933A
:100C3000060481E00E94290290930904809308042D
:100C400081E00E94290290930B0480930A0481E0C2
:100C50000E94290290930D0480930C0480E00E946E
:100C6000290290930F0480930E040093BC0083EB41
:100C700091E00E94D20160E087E70E945702009352
:100C8000BC008BEC91E00E94D20160E08EE10E94FA
:100C9000570280E00E943D0261E08EE10E9457020F
:100CA00081E00E940E02182F81EE91E00E942E0139
:100CB000612F607670E025E0759567952A95E1F7DC
:100CC000072E000C880B990B0E94DF008EEE91E03E
:100CD0000E942E01612F6C7170E075956795759576
:100CE0006795072E000C880B990B0E94DF008BEF95
:100CF00091E00E942E01612F637070E080E090E02F
:100D00000E94DF0081E00E940E02182F88E092E02E
:100D10000E942E01612F62956695677070E080E0F9
:100D200090E00E94DF0080E00E940E02182F85E113
:100D300092E00E942E01612F70E0660F672F661F00
:100D4000770B072E000C880B990B0E94DF008BE1BC
:100D500092E00E942E01612F637070E080E090E0CD
:100D60000E94DF000093BC0088E292E00E94D20162
:100D700060E080E50E9457020093BC008DE392E0A2
:100D80000E94D20160E08FE30E9457020093BC00F2
:100D900088E592E00E94D20160E088E60E94570256
:100DA0008AE10E943D0261E088E60E94570281E0EC
:100DB0000E940E02182F8BE792E00E942E01612FF5
:100DC000677070E080E090E00E94DF0081E00E94A8
:100DD0000E02182F85E892E00E942E011871612FF3
:100DE00070E053E0759567955A95E1F7072E000C72
:100DF000880B990B0E94DF0081E00E940E02182FE1
:100E000087E992E00E942E011871612F70E0E3E003
:100E100075956795EA95E1F7072E000C880B990BFD
:100E20000E94DF0080E00E940E02182F89EA92E003
:100E30000E942E01612F70E080E090E00E94DF00B0
:100E400060E088E60E9457028BE60E943D0261E066
:100E500088E60E94570286EB92E00E942E0181E014
:100E60000E940E02682F70E080E090E00E94DF0098
:100E700086EC92E00E942E0180E00E940E02682F14
:100E800070E080E090E00E94DF000093BC0086EDFF
:100E900092E00E94D20180916E00816080936E008A
:100EA00085B5826085BD78948DEE92E00E94D20176
:100EB000212C312CBFEF2B1A3B0A6AE0C1010E94A2
:100EC000E5008DEF92E00E942E0108E010E02396ED
:100ED0001FAF0EAF2397C12CD12C7601812C912C02
:100EE0005401412C512C320140E050E0BA012196CE
:100EF0001CAE1DAE1EAE1FAE219719AE1AAE1BAEB4
:100F00001CAE1DAA1EAA1FAA18AECE0101962E96CF
:100F10004FAF2E972F965FAF2F9760966FAF60976A
:100F200061967FAF61970E94B20289819A81092EF2
:100F3000000CAA0BBB0B0DA91EA92FA938AD080FD9
:100F4000191F2A1F3B1F0DAB1EAB2FAB38AF8B8178
:100F50009C81092E000CAA0BBB0B09AD1AAD2BAD61
:100F60003CAD080F191F2A1F3B1F09AF1AAF2BAF4B
:100F70003CAF8D819E81092E000CAA0BBB0B2196E4
:100F80000CAD1DAD2EAD3FAD2197080F191F2A1FC7
:100F90003B1F21960CAF1DAF2EAF3FAF21978D8920
:100FA0009E89092E000CAA0BBB0B2E964FAD2E97D7
:100FB0002F965FAD2F9760966FAD609761967FAD6E
:100FC0006197480F591F6A1F7B1F8F89988D092EC3
:100FD000000CAA0BBB0B480E591E6A1E7B1E898D86
:100FE0009A8D092E000CAA0BBB0B880E991EAA1E07
:100FF000BB1E8B899C89092E000CAA0BBB0BC80E4B
:10100000D91EEA1EFB1E23962EAD3FAD239721501D
:10101000310923963FAF2EAF2397232B09F075CFCD
:101020008DA99EA9AFA9B8AD23E0B595A7959795D1
:1010300087952A95D1F78DAB9EABAFABB8AF09AD15
:101040001AAD2BAD3CADE3E0359527951795079587
:10105000EA95D1F709AF1AAF2BAF3CAF21968CAD13
:101060009DADAEADBFAD2197F3E0B595A795979532
:101070008795FA95D1F721968CAF9DAFAEAFBFAFF4
:1010800021978A019B01A3E0359527951795079530
:10109000AA95D1F725960CAF1DAF2EAF3FAF259780
:1010A000D301C20113E0B595A795979587951A9539
:1010B000D1F729968CAF9DAFAEAFBFAF2997950101
:1010C000840183E035952795179507958A95D1F783
:1010D0002D960CAF1DAF2EAF3FAF2D972DA93EA97A
:1010E0003A83298389AD9AAD9C838B83ADADBEAD28
:1010F000BE83AD8393E0F594E794D794C7949A9513
:10110000D1F7DC8ACB8A2396EEADFFAD2397FE8B19
:10111000ED8B27960EAD1FAD2797188F0F8B2B9653
:101120002EAD3FAD2B973A8F298FFE013196DE0110
:101130005B968AE101900D928A95E1F760E08EE17D
:101140000E94570283E00E943D0261E08EE10E940E
:10115000570281E00E9429026C0181E00E9429026D
:101160008C0180E00E9429027C0134E93093BC00AC
:10117000C11480EFD80621F482E093E00E94F301CD
:10118000E11490EFF90621F486E193E00E94F30167
:101190000115104F21F48AE293E00E94F30160E010
:1011A00087E70E94570284EF0E943D028EE20E9470
:1011B0003D02B4E9B093BC00EFE4F6E43197F1F7F7
:1011C00000C0000060E087E70E94570286EF0E949F
:1011D0003D0261E087E70E94570280E00E942902F9
:1011E000F4E9F093BC0060E087E70E94570284EFC7
:1011F0000E943D0284EF0E943D0204E90093BC007E
:101200001FEB2EE331E0115020403040E1F700C0E9
:10121000000060E087E70E94570286EF0E943D02CF
:1012200061E087E70E94570281E00E940E0281E0A0
:101230000E940E0280E00E940E020093BC0049A0B2
:101240005AA06BA07CA08DA09EA0AFA0B8A4C9A4FA
:10125000DAA4EBA4FCA48EE393E00E942E01ADA9D6
:10126000BEA9BD01BB0F880B990B0E940E0B25ED8B
:101270003FEF4FE759E30E94C30B0E944B0187E405
:1012800093E00E942E01E9ADFAADBF01FF0F880B7C
:10129000990B0E940E0B25ED3FEF4FE759E30E949B
:1012A000C30B0E944B0183E593E00E942E010DAD1C
:1012B0001EADB801110F880B990B0E940E0B25ED86
:1012C0003FEF4FE759E30E94C30B0E944B018FE5AC
:1012D00093E00E942E0123962EAD3FAD2397B901D6
:1012E000330F880B990B0E940E0B28EF31EC49E766
:1012F0005DE30E94C30B0E944B018BE693E00E94CA
:101300002E012796AEADBFAD2797BD01BB0F880B51
:10131000990B0E940E0B28EF31EC49E75DE30E9428
:10132000C30B0E944B018BE793E00E942E012B968A
:10133000EEADFFAD2B97BF01FF0F880B990B0E94FD
:101340000E0B28EF31EC49E75DE30E94C30B0E94CE
:101350004B018BE893E00E942E01C301B2010E9471
:10136000D60A072E000C880B990B0E940E0B28EF53
:1013700031EC49E75DE30E94C30B0E944B018CE90D
:1013800093E00E942E01C501B4010E94D60A072EE7
:10139000000C880B990B0E940E0B28EF31EC49E7EB
:1013A0005DE30E94C30B0E944B018AEA93E00E9416
:1013B0002E01C701B6010E94D60A072E000C880B29
:1013C000990B0E940E0B28EF31EC49E75DE30E9478
:1013D000C30B0E944B0188EB93E00E942E012091E9
:1013E0000001309101014091020150910301A0E5FB
:1013F000B0E00E947A0C605C744D814091092CE849
:101400003AE040E050E00E94580CC90186559F4FD9
:10141000909389008093880090938B0080938A003A
:1014200026552093B3002091000130910101409195
:10143000020150910301A0E5B0E00E947A0C605CCB
:10144000744D814091092CE83AE040E050E00E9460
:10145000580C26552093B4008EEF92E00E942E0186
:1014600080918800909189000E9466008DEB93E046
:101470000E942E0180918A0090918B000E9466004C
:101480008DEB93E00E942E018091B3006AE090E022
:101490000E94E5008DEB93E00E942E018091B40044
:1014A0006AE090E00E94E5008AE00E945F00FFEFA2
:1014B00003ED10E3F15000401040E1F700C00000E0
:1014C0008AE00E945F00F6CC5058BB27AA270E94F2
:1014D0007C0A0C94840B0E94760B38F00E947D0BE2
:1014E00020F039F49F3F19F426F40C94730B0EF49A
:1014F000E095E7FB0C946D0BE92F0E94950B58F3D8
:10150000BA17620773078407950720F079F4A6F5E8
:101510000C94B70B0EF4E0950B2EBA2FA02D0B01F7
:10152000B90190010C01CA01A0011124FF27591B28
:1015300099F0593F50F4503E68F11A16F040A22F2E
:10154000232F342F4427585FF3CF4695379527959F
:10155000A795F0405395C9F77EF41F16BA0B620B9E
:10156000730B840BBAF09150A1F0FF0FBB1F661FE5
:10157000771F881FC2F70EC0BA0F621F731F841F28
:1015800048F4879577956795B795F7959E3F08F04E
:10159000B0CF9395880F08F09927EE0F9795879510
:1015A00008950E94490B08F481E008950E94DD0A25
:1015B0006894B1110C94B80B08950E949D0B88F0AB
:1015C0009F5798F0B92F9927B751B0F0E1F0660F07
:1015D000771F881F991F1AF0BA95C9F714C0B13048
:1015E00091F00E94B70BB1E008950C94B70B672FF0
:1015F000782F8827B85F39F0B93FCCF38695779577
:101600006795B395D9F73EF490958095709561955F
:101610007F4F8F4F9F4F0895E89409C097FB3EF48A
:1016200090958095709561957F4F8F4F9F4F99232F
:10163000A9F0F92F96E9BB279395F69587957795AD
:101640006795B795F111F8CFFAF4BB0F11F460FF6D
:101650001BC06F5F7F4F8F4F9F4F16C0882311F0C5
:1016600096E911C0772321F09EE8872F762F05C0D9
:10167000662371F096E8862F70E060E02AF09A9574
:10168000660F771F881FDAF7880F9695879597F969
:101690000895990F0008550FAA0BE0E8FEEF161603
:1016A0001706E807F907C0F012161306E407F50756
:1016B00098F0621B730B840B950B39F40A2661F0CA
:1016C000232B242B252B21F408950A2609F4A1406D
:1016D000A6958FEF811D811D089597F99F6780E87A
:1016E00070E060E008959FEF80EC089500240A9474
:1016F0001616170618060906089500240A941216ED
:101700001306140605060895092E0394000C11F41F
:10171000882352F0BB0F40F4BF2B11F460FF04C0CC
:101720006F5F7F4F8F4F9F4F089557FD9058440F25
:10173000551F59F05F3F71F04795880F97FB991F30
:1017400061F09F3F79F087950895121613061406ED
:10175000551FF2CF4695F1DF08C01616170618067A
:10176000991FF1CF86957105610508940895E89455
:10177000BB2766277727CB0197F908950E94490B6D
:1017800008F48FEF08950E94D60B0C94840B0E94EE
:10179000760B38F00E947D0B20F0952311F00C940D
:1017A0006D0B0C94730B11240C94B80B0E94950BC9
:1017B00070F3959FC1F3950F50E0551F629FF001A4
:1017C000729FBB27F00DB11D639FAA27F00DB11DBD
:1017D000AA1F649F6627B00DA11D661F829F222746
:1017E000B00DA11D621F739FB00DA11D621F839FCD
:1017F000A00D611D221F749F3327A00D611D231FA3
:10180000849F600D211D822F762F6A2F11249F57F0
:1018100050409AF0F1F088234AF0EE0FFF1FBB1FF3
:10182000661F771F881F91505040A9F79E3F5105B2
:1018300080F00C946D0B0C94B80B5F3FE4F3983E72
:10184000D4F3869577956795B795F795E7959F5F5C
:10185000C1F7FE2B880F911D9695879597F90895EE
:10186000AA1BBB1B51E107C0AA1FBB1FA617B707C6
:1018700010F0A61BB70B881F991F5A95A9F78095E2
:101880009095BC01CD01089597FB072E16F40094A6
:1018900007D077FD09D00E94300C07FC05D03EF43C
:1018A000909581959F4F0895709561957F4F08950C
:1018B000A1E21A2EAA1BBB1BFD010DC0AA1FBB1F54
:1018C000EE1FFF1FA217B307E407F50720F0A21BC6
:1018D000B30BE40BF50B661F771F881F991F1A9433
:1018E00069F760957095809590959B01AC01BD015D
:1018F000CF0108950E948B0CA59F900DB49F900D71
:10190000A49F800D911D11240895EE0FFF1F0590D7
:10191000F491E02D0994A29FB001B39FC001A39F51
:10192000700D811D1124911DB29F700D811D112418
:08193000911D0895F894FFCF0A
:10193800B80B0000B80B0000B80B0000B80B000093
:10194800B80B0000B80B00006F7666004932435FA1
:101958004552524F523A3A00205B4932435F616424
:1019680064726573733D3078005D004932435F45AA
:1019780052524F523A3A556E73706563696669659B
:1019880064204572726F72205B545753523D307811
:10199800004932435F444154415F4E41434B004943
:1019A80032435F4D525F414444524553535F4E4169
:1019B800434B004932435F4D545F414444524553C1
:1019C800535F4E41434B004932435F535441525495
:1019D8005F4552524F52005374617274696E672E9C
:1019E8002E2E003E20436865636B696E6720426156
:1019F800726F6D657465722E2E2E003E20436865E9
:101A0800636B696E6720436F6D706173732E2E2E42
:101A1800004D415B313A305D203D20306200444F3B
:101A28005B323A305D203D203062004D535B313AE5
:101A3800305D203D20306200474E5B323A305D20F9
:101A48003D203062004853203D20004D445B313A30
:101A5800305D203D203062003E20436865636B693D
:101A68006E6720454550524F4D2E2E2E003E204386
:101A78006865636B696E672045787465726E616C22
:101A88002050696E2E2E2E003E20436865636B69D8
:101A98006E67204779726F202620416363656C6505
:101AA800726F6D657465722E2E2E00444C50462060
:101AB8003D203062004759524F3A3A46535F5345EA
:101AC8004C203D203062004143433A3A4146535F3F
:101AD80053454C203D203062004649464F5F454EF5
:101AE800203D203062005057525F4D474D545F31C2
:101AF800203D203062005057525F4D474D545F32B1
:101B0800203D2030620046696E6973686564206311
:101B18006865636B696E67204932432E00536574AC
:101B280075702046696E69736865642E00203E3EB4
:101B38002000434F4D504153535F4F564552464C3A
:101B48004F573A3A5800434F4D504153535F4F5601
:101B58004552464C4F573A3A5900434F4D5041531E
:101B6800535F4F564552464C4F573A3A5A004143F5
:101B7800435F58203D2000672C204143435F592094
:101B88003D2000672C204143435F5A203D200067D9
:101B98002C094759525F58203D20006465672F7310
:101BA8002C204759525F59203D20006465672F73E8
:101BB8002C204759525F5A203D20006465672F73D7
:101BC8002C0920414E475F58203D20006465672C52
:101BD80020414E475F59203D20006465672C204115
:101BE8004E475F5A203D20006465672E002C200078
:101BF80050494E5F4220496E746572727570742147
:021C08000000DA
:00000001FF
