:100000000C9467000C948F000C948F000C944D039B
:100010000C948F000C945E020C948F000C948F0053
:100020000C948F000C948F000C948F000C948F0014
:100030000C948F000C948F000C948F000C948F0004
:100040000C94BD040C948F000C94BC030C948F0092
:100050000C948F000C948F000C948F000C948F00E4
:100060000C948F000C948F008C04DF03DF03DF03FC
:10007000DF03DF03DF03F503400447044C045104AE
:1000800056045B0460046D047A04DF03DF03DF03BE
:10009000DF03DF03DF03DF03DF03DF03E303084ADC
:1000A000D73B3BCE016E84BCBFFDC12F3D6C74318C
:1000B0009ABD56833DDA3D00C77F11BED9E4BB4CE3
:1000C0003E916BAAAABE000000803F00E20411240A
:1000D0001FBECFEFD8E0DEBFCDBF11E0A0E0B1E0A2
:1000E000E8E9F0E202C005900D92A63FB107D9F70A
:1000F00023E0A6EFB1E001C01D92A630B207E1F700
:1001000010E0C7E6D0E004C02197FE010E940E1067
:10011000C636D107C9F70E9402050C944A100C9408
:100120000000F8948091F6019091F701A091F801F8
:10013000B091F90126B57894BA2FA92F982F882766
:10014000BC01CD01622B08959091C00095FFFCCFBA
:100150008093C6000895EF92FF920F931F93CF9361
:10016000DF93CDB7DEB761970FB6F894DEBF0FBE51
:10017000CDBF8C0197FF06C08DE20E94A4001195AF
:1001800001951109198A7E0121E1E20EF11CC801D5
:100190008F70992724E0159507952A95E1F7E1E0FE
:1001A000EE1AF1088A30910514F4805D01C0895C73
:1001B000F70180830115110551F7F70181917F0146
:1001C0000E94A400F70180818111F7CF61960FB6DC
:1001D000F894DEBF0FBECDBFDF91CF911F910F917D
:1001E000FF90EF9008950F931F93CF93DF938C01AF
:1001F0009C01E9012F5F3F4F48814111FACFC81B95
:10020000D90B49F0C80FC01731F0F80181918F0167
:100210000E94A400F8CFDF91CF911F910F91089514
:10022000CF93C82F892F0E94A4008C2FCF910C94BC
:10023000A4000F931F93CF93DF931F92CDB7DEB728
:100240008C018EE191E069830E94F300C8010E9455
:10025000F3008AE291E00E94F3006981862F90E02A
:100260000E94AB008BE391E00E94F3008AE00F90C4
:10027000DF91CF911F910F910C94A400CF93DF9346
:10028000EC018EE191E00E94F300CE010E94F300A8
:100290008AE0DF91CF910C94A4008DE391E00E945D
:1002A000F3008091B900887F90E00E94AB008BE35F
:1002B00091E00E94F3008AE00C94A400882311F0DE
:1002C00084EC01C084E88093BC008091BC0087FF6F
:1002D000FCCF8091B900887F803529F08091B900EA
:1002E000887F883519F48091BB0008950E944D01E4
:1002F000FACFCF93DF93D82F81E00E945E01C82F01
:100300008D2F0E945E012C2F30E0322F2227A90171
:10031000482BCA01DF91CF9108958093BB0084E8F8
:100320008093BC008091BC0087FFFCCF8091B90016
:10033000887F883259F08091B900887F803321F41A
:1003400083E691E00C943E010C944D0108951F93B7
:10035000CF93DF931F92CDB7DEB7182F84EA809337
:10036000BC008091BC0087FFFCCF8091B900887FE2
:10037000883029F08091B900887F8031B9F5812FCC
:10038000880F862B8093BB0084E88093BC0080910B
:10039000BC0087FFFCCF2091B900287F30E06111BD
:1003A00003C088E190E002C080E490E0281739079C
:1003B00021F18091B900887F883421F4612F81E791
:1003C00091E008C08091B900887F803249F4612FA4
:1003D00085E891E00F90DF91CF911F910C94190166
:1003E0000F90DF91CF911F910C944D0189E991E01D
:1003F00069830E943E016981C2CF0F90DF91CF9146
:100400001F9108950F931F93CF93DF93EC0160E04A
:1004100088E60E94A7018BE30E948D0161E088E6D7
:100420000E94A70181E00E94790102E112E0F80137
:1004300020813181820F931F9983888381E00E94FC
:100440007901F80122813381820F931F9B838A8374
:1004500081E00E947901F80124813581820F931F88
:100460009D838C8381E00E9479019B8B8A8B81E044
:100470000E947901F80126813781820F931F9D8B9D
:100480008C8B81E00E947901F80120853185820FF3
:10049000931F9F8B8E8B80E00E947901F80122854B
:1004A0003385820F931F998F888F84E98093BC00D6
:1004B000CE01DF91CF911F910F9108951F920F925E
:1004C0000FB60F921124CF92DF92EF92FF920F930B
:1004D0001F932F933F934F935F936F937F938F93CC
:1004E0009F93AF93BF93CF93DF93EF93FF93D9B1D4
:1004F000C0917402CD270E949100D0937402789429
:10050000C2FF2CC00091FA011091FB012091FC0167
:100510003091FD01D2FD1AC06B017C01C01AD10AD5
:10052000E20AF30A970186014DEDC41A45E0D40AA8
:10053000E108F1084BE8C4164AE0D406E104F104EE
:1005400068F4109301010093000108C06093FA0160
:100550007093FB018093FC019093FD01C4FF2CC0BC
:100560000091FE011091FF012091000230910102E3
:10057000D4FD1AC06B017C01C01AD10AE20AF30A49
:10058000970186014DEDC41A45E0D40AE108F1084F
:100590004BE8C4164AE0D406E104F10468F4109371
:1005A00003010093020108C06093FE017093FF01F4
:1005B0008093000290930102C5FF2CC000910202BB
:1005C000109103022091040230910502D5FD1AC05A
:1005D0006B017C01C01AD10AE20AF30A9701860175
:1005E0004DEDC41A45E0D40AE108F1084BE8C41601
:1005F0004AE0D406E104F10468F410930501009385
:10060000040108C060930202709303028093040205
:1006100090930502C6FF28C00091060210910702C0
:100620002091080230910902D6FD16C0DC01CB01F1
:10063000801B910BA20BB30B8C019D010D5D15402E
:10064000210931090B381A402105310568F49093CE
:1006500007018093060108C06093060270930702A9
:100660008093080290930902FF91EF91DF91CF915F
:10067000BF91AF919F918F917F916F915F914F91BA
:100680003F912F911F910F91FF90EF90DF90CF90AE
:100690000F900FBE0F901F9018951F920F920FB6DC
:1006A0000F9211240F931F932F933F934F935F93B8
:1006B0006F937F938F939F93AF93BF93CF93DF936A
:1006C000EF93FF93C3B1D0917502DC270E94910094
:1006D000C09375027894D0FF28C000910E0210914B
:1006E0000F022091100230911102C0FD16C0DC01F2
:1006F000CB01801B910BA20BB30B8C019D010D5DF7
:100700001540210931090B381A402105310568F4DB
:1007100090930B0180930A0108C060930E027093BE
:100720000F02809310029093110280910A01909120
:100730000B01843C994028F410921D0110921C0179
:1007400006C081E090E090931D0180931C01FF9111
:10075000EF91DF91CF91BF91AF919F918F917F9159
:100760006F915F914F913F912F911F910F910F903A
:100770000FBE0F901F9018951F920F920FB60F92F9
:1007800011240F931F932F933F934F935F936F9376
:100790007F938F939F93AF93BF93CF93DF93EF9309
:1007A000FF93E091C6008E2F90E0FC01EA55F1091D
:1007B000EB31F10520F4EC5CFF4F0C940E1005EECC
:1007C00011E09801B0C0C0911801D09119011091A9
:1007D0001A0180911B010E94A400812F0E94A40095
:1007E0008D2F0E94A4008C2F9BC080915602909167
:1007F00057020E94100180915802909159020E9464
:10080000100180915A0290915B020E941001809128
:100810006A0290916B020E94100180916C0290918B
:100820006D020E94100180916E0290916F020E94F1
:10083000100120E030E040E851E460915C027091EA
:100840005D0280915E0290915F020E94380F0E94CB
:100850001C0ECB010E94100120E030E040E851E482
:1008600060916002709161028091620290916302D6
:100870000E94380F0E941C0ECB010E9410013AC04A
:1008800080915602909157020E94100161C08091A0
:10089000580290915902F8CF80915A0290915B02D0
:1008A000F3CF80916A0290916B02EECF80916C023F
:1008B00090916D02E9CF80916E0290916F02E4CF2A
:1008C00020E030E040E851E460915C0270915D020C
:1008D00080915E0290915F0219C020E030E040E814
:1008E00051E4609160027091610280916202909186
:1008F00063020CC020E030E040E851E46091640203
:100900007091650280916602909167020E94380F93
:100910000E941C0ECB01B8CF8EEB0E94A4008FEE7C
:100920000E94A40015C0F9012F5F3F4F4081411183
:10093000FACFCF01855E914059F0C5EED1E0C80FE6
:10094000C01731F0F80181918F010E94A400F8CF07
:10095000FF91EF91DF91CF91BF91AF919F918F91D7
:100960007F916F915F914F913F912F911F910F91C7
:100970000F900FBE0F901F9018951F920F920FB6F9
:100980000F9211248F939F93AF93BF938091F601A1
:100990009091F701A091F801B091F9010196A11D84
:1009A000B11D8093F6019093F701A093F801B093E5
:1009B000F901BF91AF919F918F910F900FBE0F9052
:1009C0001F901895E6E7F2E080E090E024E1DF0177
:1009D000322F1D923A95E9F7DC01AA58BD4F549683
:1009E0001C92549755961C92178A168A48967896A8
:1009F0008039910561F783B18093750289B1809345
:100A000074020895CF93DF93CDB7DEB7CA54D109EE
:100A10000FB6F894DEBF0FBECDBF8091C1008160DC
:100A20008093C10088E08093C4008091C1008068F9
:100A30008093C10010926400539A84B18E6084B98F
:100A400080918000816A809380008091B000816AEB
:100A50008093B000809181008460809381008091B8
:100A6000B10086608093B1008BB1846F8BB9289AF6
:100A700080916B00816080936B0080916D00846F2A
:100A800080936D00809168008560809368008091FC
:100A900064008F77809364008CE08093B80080912D
:100AA000B9008C7F8093B90060E088E60E94A701BE
:100AB0008BE60E948D0180E80E948D0114E910935D
:100AC000BC002FEF30E742E0215030404040E1F7DA
:100AD00000C0000060E088E60E94A7018BE60E944B
:100AE0008D0183E00E948D0160E088E60E94A701ED
:100AF0008AE10E948D0180E00E948D0188E10E94C0
:100B00008D0180E10E948D0180E00E948D0160E0F6
:100B100088E60E94A70187E30E948D0182E00E947F
:100B20008D011093BC008FE99FE00197F1F700C0A1
:100B300000001092130210921202109215021092ED
:100B400014021092170210921602109219021092BB
:100B5000180210921B0210921A0210921D0210929B
:100B60001C028E01055E1F4F88E1D8011D928A95F7
:100B7000E9F7E12CF12CCE0101960E940202BFEFB1
:100B8000EB16F10409F00CF46CC089819A81092EEE
:100B9000000CAA0BBB0B4B8D5C8D6D8D7E8D840F75
:100BA000951FA61FB71F8B8F9C8FAD8FBE8F8B811C
:100BB0009C81092E000CAA0BBB0B4F8D58A169A17B
:100BC0007AA1840F951FA61FB71F8F8F98A3A9A383
:100BD000BAA38D819E81092E000CAA0BBB0B4BA1E1
:100BE0005CA16DA17EA1840F951FA61FB71F8BA3CB
:100BF0009CA3ADA3BEA38D899E89092E000CAA0BD0
:100C0000BB0B4FA158A569A57AA5840F951FA61FF8
:100C1000B71F8FA398A7A9A7BAA78F89988D092E68
:100C2000000CAA0BBB0B4BA55CA56DA57EA5840F84
:100C3000951FA61FB71F8BA79CA7ADA7BEA7898D21
:100C40009A8D092E000CAA0BBB0B4FA558A969A9B8
:100C50007AA9840F951FA61FB71F8FA798ABA9ABC2
:100C6000BAABEFE3F6E03197F1F700C00000FFEF19
:100C7000EF1AFF0AE11422E0F20609F07CCFF80136
:100C800022E132E0AE014D5C5F4F81919191A191E3
:100C9000B191892F9A2FAB2FBB27A7FDBA959195BC
:100CA00081959109D9018D939D939D01E417F507D5
:100CB00061F78091160290911702905F909317024E
:100CC0008093160260E08EE10E94A70180E00E94FE
:100CD0008D0180E70E948D0180E20E948D0180E0FD
:100CE0000E948D0114E91093BC0060E087E70E9428
:100CF000A7018AEA0E948D0161E087E70E94A701AF
:100D000081E00E94790190931F0280931E0281E08E
:100D10000E947901909321028093200281E00E9439
:100D20007901909323028093220281E00E9479014D
:100D3000909325028093240281E00E947901909390
:100D400027028093260281E00E9479019093290274
:100D50008093280281E00E94790190932B02809376
:100D60002A0281E00E94790190932D0280932C0247
:100D700081E00E94790190932F0280932E0281E0FE
:100D80000E947901909331028093300280E00E94AA
:100D9000790190933302809332021093BC008091CA
:100DA0006E00816080936E0085B5826085BD0E9473
:100DB000910060937002709371028093720290931D
:100DC00073027894AFE02A2E312C80911C0190910F
:100DD0001D01892B09F049C01092890010928800EA
:100DE00010928B0010928A001092B3001092B400FF
:100DF000BFEFE7EAF1E6B150E040F040E1F700C0B4
:100E0000000026E430E0309389002093880030937E
:100E10008B0020938A0086E48093B3008093B40013
:100E20003FEF47EA51E6315040405040E1F700C003
:100E30000000309289002092880030928B0020922E
:100E40008A008FE08093B3008093B4008FEF97EA1D
:100E5000A1E681509040A040E1F700C00000E1E031
:100E6000F0E0F0931D01E0931C0170E0A72E71E00B
:100E7000B72EEAE8EE2EE2E0FE2EFCE0CF2EF1E007
:100E8000DF2EEBE8F2E000E010E04CE0D5012D9120
:100E90003D915D01D7018C918A3020F58823B9F00E
:100EA00080818F5F8083409FD001419FB00D1124CE
:100EB000A80FB11DAA0FBB1FAA58BD4F2D933C937D
:100EC00081819281280F391F3695279504C0DF0153
:100ED00055972D933C9332832183D7018C918F5F5B
:100EE0008C931DC0808190E001966AE070E00E94C2
:100EF000B90F8083409FD001419FB00D1124A80FEE
:100F0000B91FAA0FBB1FAA58BD4F2D933C938181D7
:100F10009281280F391F369527953283218381814D
:100F20009281D6018D939D936D010F5F1F4FB8E1A4
:100F3000EB0EF11C78960630110509F0A7CF08E0FA
:100F400010E023961CAE1DAE1EAE1FAE23971BAE47
:100F50001CAE1DAE1EAE1FAA18AE19AE1AAE1BAA4D
:100F60001CAA1DAA1EAA812C912C5401412C512C83
:100F70003201C12CD12C7601CE0101960E940202D1
:100F800089819A81092E000CAA0BBB0BC80ED91EB1
:100F9000EA1EFB1E8B819C81092E000CAA0BBB0B49
:100FA000480E591E6A1E7B1E8D819E81092E000CE3
:100FB000AA0BBB0B880E991EAA1EBB1E8D899E898B
:100FC000092E000CAA0BBB0B2BA93CA94DA95EA9AD
:100FD000280F391F4A1F5B1F2BAB3CAB4DAB5EABE1
:100FE0008F89988D092E000CAA0BBB0B2FA938AD49
:100FF00049AD5AAD280F391F4A1F5B1F2FAB38AFC1
:1010000049AF5AAF898D9A8D092E000CAA0BBB0BE4
:101010002BAD3CAD4DAD5EAD280F391F4A1F5B1F98
:101020002BAF3CAF4DAF5EAF8B899C89092E000C76
:10103000AA0BBB0B23962CAD3DAD4EAD5FAD2397F8
:10104000280F391F4A1F5B1F23962CAF3DAF4EAFB1
:101050005FAF23970150110909F08ECF83E0F5941B
:10106000E794D794C7948A95D1F7D301C20123E0BE
:10107000B595A795979587952A95D1F727968CAF23
:101080009DAFAEAFBFAF2797A501940163E0559523
:101090004795379527956A95D1F72B962CAF3DAF9D
:1010A0004EAF5FAF2B97B901330F880B990B0E949E
:1010B000540E4B015C01662777276C197D09072EBA
:1010C000000C880B990B0E94540EA50194010E94FC
:1010D000460D2B013C0125966EAD7FAD2597719590
:1010E00061957109072E000C880B990B0E94540E14
:1010F000A50194010E94460D4B015C01D09257025C
:10110000C092560225964EAD5FAD25975093590279
:101110004093580229968EAD9FAD299790935B021C
:1011200080935A0226EE3EE245E652E4C301B20144
:101130000E94380F60935C0270935D0280935E02A0
:1011400090935F0226EE3EE245E652E4C501B4010B
:101150000E94380F60936002709361028093620274
:1011600090936302109264021092650210926602DC
:101170001092670223968CAD9DADAEADBFAD2397A7
:1011800073E0B595A795979587957A95D1F7909344
:101190006902809368028BA99CA9ADA9BEA9E3E06E
:1011A000B595A79597958795EA95D1F790936B029A
:1011B00080936A028FA998ADA9ADBAADF3E0B59559
:1011C000A79597958795FA95D1F790936D0280939F
:1011D0006C028BAD9CADADADBEAD13E0B595A795E2
:1011E000979587951A95D1F790936F0280936E0229
:1011F00060E08EE10E94A70183E00E948D0161E022
:101200008EE10E94A70181E00E9479016C0181E0DA
:101210000E9479018C0180E00E9479017C0184E9BF
:101220008093BC00C11490EFD90621F489EA91E0C3
:101230000E943E01E114A0EFFA0621F48DEB91E04B
:101240000E943E010115B0EF1B0721F481ED91E0F2
:101250000E943E01D0925102C0925002F09253027D
:10126000E0925202109355020093540260E087E727
:101270000E94A70184EF0E948D018EE20E948D01E1
:1012800014E9F12EF092BC00EFE4F6E43197F1F7A7
:1012900000C0000060E087E70E94A70186EF0E947F
:1012A0008D0161E087E70E94A70180E00E9479013B
:1012B0006C01F092BC0060E087E70E94A70184EF18
:1012C0000E948D0184EF0E948D01F092BC00FFEB23
:1012D0002EE331E0F15020403040E1F700C0000043
:1012E00060E087E70E94A70186EF0E948D0161E020
:1012F00087E70E94A70181E00E945E01082F81E03C
:101300000E945E01182F80E00E945E01B82EF092CC
:10131000BC00A601DD0C660B770B80912802909132
:1013200029029A01AB01281B390B41095109A091EF
:101330002602B09127020E9414106B017C018FE0FD
:10134000F594E794D794C7948A95D1F760913002C9
:1013500070913102CB01770FAA0BBB0BBC01CD0101
:101360002BE0660F771F881F991F2A95D1F72091D0
:101370003202309133022901330F66087708A70142
:101380009601240D351D461D571D0E94EF0FC20EFC
:10139000D31EE41EF51ED701C6010896A11DB11D7E
:1013A0009C01AD0164E055954795379527956A9561
:1013B000D1F72FAB38AF49AF5AAF30EAC31A3FE08D
:1013C000D30AE108F108A7019601C701B6010E94FE
:1013D000A90F9B01AC017CE0559547953795279562
:1013E0007A95D1F72BAB3CAB4DAB5EABA091220213
:1013F000B0912302A70196010E941F102B013C010E
:10140000EDE07594679457944794EA95D1F7A091CD
:101410002A02B0912B022BA93CA94DA95EA90E94DA
:101420001F10BB2797FDB095AB2F840D951DA61DF2
:10143000B71D0296A11DB11D22E0B595A795979500
:1014400087952A95D1F79C01AD0130584F4F5F4FDA
:10145000A0912402B09125020E9414102B013C019E
:101460003FE076946794579447943A95D1F7802F4C
:1014700090E0A0E0B0E0BC0155274427812F90E028
:10148000A0E0B0E0BA2FA92F982F8827840F951FCE
:10149000A61FB71F8B0D911DA11DB11D9C01AD0194
:1014A000F5E05595479537952795FA95D1F72BAFE8
:1014B0003CAF4DAF5EAF80901E0290901F02880C33
:1014C000991C880C991C092C000CAA08BB08A09137
:1014D0002C02B0912D022BA93CA94DA95EA90E9416
:1014E0001F109B01AC01BBE055954795379527959B
:1014F000BA95D1F72BAB3CAB4DAB5EABA0912002C4
:10150000B0912102A70196010E941F10DC01CB01BE
:101510001BE0B595A795979587951A95D1F72BA9B7
:101520003CA94DA95EA9820F931FA41FB51F880D6A
:10153000991DAA1DBB1D03E0880F991FAA1FBB1F81
:101540000A95D1F7BC01CD016E5F7F4F8F4F9F4F42
:1015500024E030E040E050E00E94EF0F8BAD9CAD06
:10156000ADADBEAD821B930BA40BB50B9C01AD01C1
:10157000AAE6B8E10E94141097FD0BC0660F771F12
:10158000881F991FA30192010E94CD0F69017A0162
:101590000AC0A30192010E94CD0F69017A01CC0C0F
:1015A000DD1CEE1CFF1C9927F7FC9A958F2D7E2DD4
:1015B0006D2D9B01AC010E94A90F9B01AC01AEED0A
:1015C000BBE00E9414104C01BB2497FCB094AB2CE0
:1015D000A3E4B3EEA70196010E942210BB2797FD5A
:1015E000B095AB2F880E991EAA1EBB1E9FEC890ECC
:1015F0009EE0991EA11CB11CF4E0B594A7949794A9
:101600008794FA95D1F7C80CD91CEA1CFB1CC09230
:101610004802D0924902E0924A02F0924B022FA96E
:1016200038AD49AD5AAD20934C0230934D024093F2
:101630004E0250934F0260916A0270916B02072E26
:10164000000C880B990B0E94540E28EF31EC49E7EF
:101650005DE30E94380F2B013C01609344027093BC
:101660004502809346029093470220910C013091ED
:101670000D01203D47E0340740F0213A5FE0350797
:1016800048F4C901A0E0B0E009C080ED97E0A0E017
:10169000B0E004C080EA9FE0A0E0B0E09C01AD01B2
:1016A000205D374041095109A7E3B0E00E941410C2
:1016B00020ED37E040E050E00E94EF0FDA01C90171
:1016C0000F96A11DB11D8BAB9CABADABBEAB2091FA
:1016D000100130911101203D97E0390740F0213A87
:1016E000AFE03A0748F4C901A0E0B0E009C080EDDE
:1016F00097E0A0E0B0E004C080EA9FE0A0E0B0E0A6
:101700009C01AD01205D374041095109ACE3B0E0D7
:101710000E94141020ED37E040E050E00E94EF0FEF
:10172000DA01C9014E97A109B1099C01AD016627F3
:101730007727CB01621B730B840B950B0E94540E11
:10174000A30192010E94C60C4B015C0126E933E41F
:101750004BE85DE30E94380F209138023091390246
:1017600040913A0250913B020E94C70C6B017C01F0
:1017700020E030E040EA51EC0E94A50D87FD11C049
:1017800020E030E040EA51E4C701B6010E942B0F8F
:1017900018166CF4C12CD12C20EAE22E21E4F22E92
:1017A00006C0C12CD12C30EAE32E31ECF32EC092CE
:1017B0003802D0923902E0923A02F0923B02209134
:1017C0003402309135024091360250913702C30104
:1017D000B2010E94C60C26E933E44BE85DE30E94A7
:1017E000AA0D6FAB78AF89AF9AAF40923402509296
:1017F0003502609236027092370229E23CE54FE8EA
:101800005DE3C501B4010E94380F4B015C0120E08B
:1018100030E0A9016FA978AD89AD9AAD0E94380F6B
:101820009B01AC01C501B4010E94C60C4B015C01D7
:1018300020E030E0A901C701B6010E94380F9B01EA
:10184000AC01C501B4010E94C70C6B017C0120E012
:1018500030E040E251EC0E94A50D87FD11C020E070
:1018600030E040E251E4C701B6010E942B0F181688
:101870006CF4C12CD12C80E2E82E81E4F82E06C055
:10188000C12CD12C90E2E92E91ECF92E6BA97CA908
:101890008DA99EA90E94520E2B013C01A701960121
:1018A0000E94C60C0E941C0E4B015C0170933D020D
:1018B00060933C02A7019601C301B2010E94C70CCC
:1018C0000E941C0E70933F0260933E02709341028F
:1018D0006093400290924302809242028091000104
:1018E00090910101803D974080F430923D0220921A
:1018F0003C0230923F0220923E02309241022092FE
:101900004002309243022092420280913C02809336
:10191000B300809140028093B40080914202909184
:10192000430290938B0080938A0080913E029091B5
:101930003F0290938900809388008FED9EE201978B
:10194000F1F700C000000E94910000917002109118
:1019500071022091720230917302DC01CB01801B75
:10196000910BA20BB30B8093180190931901A093D4
:101970001A01B0931B010E94910060937002709352
:10198000710280937202909373021FCA5058BB2752
:10199000AA270E94DE0C0C94F10E0E94E30E38F090
:1019A0000E94EA0E20F039F49F3F19F426F40C94BB
:1019B000B90E0EF4E095E7FB0C94B30EE92F0E94EC
:1019C000020F58F3BA17620773078407950720F0D0
:1019D00079F4A6F50C94240F0EF4E0950B2EBA2F93
:1019E000A02D0B01B90190010C01CA01A001112425
:1019F000FF27591B99F0593F50F4503E68F11A16D1
:101A0000F040A22F232F342F4427585FF3CF469561
:101A100037952795A795F0405395C9F77EF41F1683
:101A2000BA0B620B730B840BBAF09150A1F0FF0F4D
:101A3000BB1F661F771F881FC2F70EC0BA0F621F39
:101A4000731F841F48F4879577956795B795F79529
:101A50009E3F08F0B0CF9395880F08F09927EE0FBE
:101A60009795879508950E94E30E60F080E891E0D5
:101A700009F49EEF0E94EA0E28F040E851E071F46C
:101A80005EEF0CC00C94B90E0C94240FE92FE07893
:101A90000E94020F40F3092E052AB1F326173707DB
:101AA0004807590738F00E2E07F8E02569F0E025C1
:101AB000E0640AC0EF6307F8009407FADB01B9019C
:101AC0009D01DC01CA01AD01EF930E94C10D0E948E
:101AD000F10E0E94760D5F91552339F02BED3FE01A
:101AE00049E450FD49EC0C94C70C0895DF93DD27C1
:101AF000B92FBF7740E85FE31616170648075B0764
:101B000018F4D92F0E94300F9F938F937F936F9378
:101B10000E94A50FEEE9F0E00E94BC0E0E94F10EBB
:101B20002F913F914F915F910E944B0FDD2351F018
:101B30009058A2EA2AED3FE049EC5FE3D0785D27B8
:101B40000E94DE0CDF910C94F10E0E948F0E08F4BF
:101B500081E008950E94BE0D0C94F10E0E94EA0EE1
:101B600058F00E94E30E40F029F45F3F29F00C94F6
:101B7000B30E51110C94250F0C94B90E0E94020F54
:101B800068F39923B1F3552391F3951B550BBB27AC
:101B9000AA2762177307840738F09F5F5F4F220FF1
:101BA000331F441FAA1FA9F335D00E2E3AF0E0E8E8
:101BB00032D091505040E695001CCAF72BD0FE2F32
:101BC00029D0660F771F881FBB1F261737074807C6
:101BD000AB07B0E809F0BB0B802DBF01FF2793587E
:101BE0005F4F3AF09E3F510578F00C94B30E0C9481
:101BF000250F5F3FE4F3983ED4F38695779567957C
:101C0000B795F7959F5FC9F7880F911D96958795B2
:101C100097F90895E1E0660F771F881FBB1F6217D1
:101C200073078407BA0720F0621B730B840BBA0B8F
:101C3000EE1F88F7E09508950E94230E6894B11175
:101C40000C94250F08950E940A0F88F09F5798F072
:101C5000B92F9927B751B0F0E1F0660F771F881FB1
:101C6000991F1AF0BA95C9F714C0B13091F00E94CB
:101C7000240FB1E008950C94240F672F782F882744
:101C8000B85F39F0B93FCCF3869577956795B395F2
:101C9000D9F73EF490958095709561957F4F8F4F61
:101CA0009F4F0895E89409C097FB3EF49095809566
:101CB000709561957F4F8F4F9F4F9923A9F0F92F12
:101CC00096E9BB279395F695879577956795B79590
:101CD000F111F8CFFAF4BB0F11F460FF1BC06F5F76
:101CE0007F4F8F4F9F4F16C0882311F096E911C088
:101CF000772321F09EE8872F762F05C0662371F0A9
:101D000096E8862F70E060E02AF09A95660F771FBC
:101D1000881FDAF7880F9695879597F90895990F98
:101D20000008550FAA0BE0E8FEEF16161706E807A5
:101D3000F907C0F012161306E407F50798F0621BC6
:101D4000730B840B950B39F40A2661F0232B242B9B
:101D5000252B21F408950A2609F4A140A6958FEFBA
:101D6000811D811D089597F99F6780E870E060E00C
:101D700008959FEF80EC0895DF93CF931F930F9307
:101D8000FF92EF92DF927B018C01689406C0DA2EFD
:101D9000EF010E944B0FFE01E894A591259135912A
:101DA00045915591A6F3EF010E94DE0CFE019701CB
:101DB000A801DA9469F7DF90EF90FF900F911F91DF
:101DC000CF91DF91089500240A941616170618067D
:101DD0000906089500240A9412161306140605062F
:101DE0000895092E0394000C11F4882352F0BB0FC0
:101DF00040F4BF2B11F460FF04C06F5F7F4F8F4F23
:101E00009F4F089557FD9058440F551F59F05F3F5D
:101E100071F04795880F97FB991F61F09F3F79F00C
:101E200087950895121613061406551FF2CF46958E
:101E3000F1DF08C0161617061806991FF1CF869510
:101E40007105610508940895E894BB2766277727F4
:101E5000CB0197F908950E948F0E08F48FEF089533
:101E60009B01AC0160E070E080E89FE30C94AA0D58
:101E70000E944B0F0C94F10E0E94E30E38F00E946A
:101E8000EA0E20F0952311F00C94B30E0C94B90EC9
:101E900011240C94250F0E94020F70F3959FC1F33B
:101EA000950F50E0551F629FF001729FBB27F00D08
:101EB000B11D639FAA27F00DB11DAA1F649F66275D
:101EC000B00DA11D661F829F2227B00DA11D621FAC
:101ED000739FB00DA11D621F839FA00D611D221F66
:101EE000749F3327A00D611D231F849F600D211D4A
:101EF000822F762F6A2F11249F5750409AF0F1F0CD
:101F000088234AF0EE0FFF1FBB1F661F771F881F35
:101F100091505040A9F79E3F510580F00C94B30EAC
:101F20000C94250F5F3FE4F3983ED4F386957795A4
:101F30006795B795F795E7959F5FC1F7FE2B880FDB
:101F4000911D9695879597F908959B01AC010C9486
:101F5000380FDB018F939F930E941410BF91AF91B4
:101F6000A29F800D911DA39F900DB29F900D1124F3
:101F7000089597FB072E16F4009407D077FD09D03B
:101F80000E94271007FC05D03EF4909581959F4F45
:101F90000895709561957F4F0895A1E21A2EAA1BAE
:101FA000BB1BFD010DC0AA1FBB1FEE1FFF1FA21709
:101FB000B307E407F50720F0A21BB30BE40BF50B06
:101FC000661F771F881F991F1A9469F7609570958F
:101FD000809590959B01AC01BD01CF010895052E20
:101FE00097FB1EF400940E94061057FD07D00E9434
:101FF000CD0F07FC03D04EF40C940610509540957D
:10200000309521953F4F4F4F5F4F089590958095A4
:10201000709561957F4F8F4F9F4F0895EE0FFF1F73
:102020000590F491E02D09940E943B10A59F900D1E
:10203000B49F900DA49F800D911D11240895B7FFAA
:102040000C9414100E941410821B930B0895AA1B69
:10205000BB1B51E107C0AA1FBB1FA617B70710F093
:10206000A61BB70B881F991F5A95A9F780959095C5
:10207000BC01CD010895A29FB001B39FC001A39FF1
:10208000700D811D1124911DB29F700D811D1124B1
:08209000911D0895F894FFCFA3
:10209800B80BB80BB80BB80BB80BB80BB80BB80B20
:1020A800B80BB80BB80BB80BE803000001004932B5
:1020B800435F4552524F523A3A00205B4932435FE0
:1020C800616464726573733D3078005D0049324322
:1020D8005F4552524F523A3A556E7370656369665E
:1020E800696564204572726F72205B545753523D84
:1020F8003078004932435F444154415F4E41434B7D
:10210800004932435F4D525F414444524553535F47
:102118004E41434B004932435F4D545F4144445262
:102128004553535F4E41434B004932435F5354413B
:1021380052545F4552524F5200434F4D50415353F2
:102148005F4F564552464C4F573A3A5800434F4D09
:10215800504153535F4F564552464C4F573A3A59A0
:1021680000434F4D504153535F4F564552464C4FD5
:10217800573A3A5A00756E6B6E6F776E20636F6DC3
:062188006D616E640000B1
:00000001FF
