:100000000C948D000C94B5000C94B5000C94D9049C
:100010000C94B5000C94CE030C94B5000C94B50070
:100020000C94B5000C94B5000C94B5000C94B5007C
:100030000C94B5000C94B5000C94B5000C94B5006C
:100040000C94FF040C94B5000C94B5000C94B5000E
:100050000C94B5000C94B5000C94B5000C94B5004C
:100060000C94B5000C94B500084AD73B3BCE016E0A
:1000700084BCBFFDC12F3D6C74319ABD56833DDAFF
:100080003D00C77F11BED9E4BB4C3E916BAAAABE0E
:10009000000000803F07634236B79BD8A71A396833
:1000A0005618AEBAAB558C1D3CB7CC5763BD6DED41
:1000B000FD753EF6177231BF000000803F0800005A
:1000C00000BE922449123EABAAAA2ABECDCCCC4C8B
:1000D0003E00000080BEABAAAAAA3E00000000BFFE
:1000E000000000803F0000000000084178D3BB43BF
:1000F00087D1133D190E3CC3BD4282AD2B3E68EC47
:100100008276BED98FE1A93E4C80EFFFBE01C4FFCD
:100110007F3F000000000000240511241FBECFEF28
:10012000D8E0DEBFCDBF13E0A0E0B1E0EEE6F3E241
:1001300002C005900D92A83FB107D9F724E0A8EFBF
:10014000B3E001C01D92A833B207E1F710E0CDE89B
:10015000D0E004C02197FE010E94A011CC38D10745
:10016000C9F70E942B050C94B5110C9400009091D6
:10017000C00095FFFCCF8093C60008950F931F9396
:10018000CF93DF93CDB7DEB761970FB6F894DEBF9C
:100190000FBECDBFBC01198A8E010F5E1F4F2AE032
:1001A00030E0CB01B9010E942411805DF8018293F7
:1001B0008F0161157105A9F7F80181918F010E94E6
:1001C000B700F80180818111F7CF61960FB6F894DE
:1001D000DEBF0FBECDBFDF91CF911F910F9108956C
:1001E000CF92DF92EF92FF920F931F93CF93DF9303
:1001F000CDB7DEB7A5970FB6F894DEBF0FBECDBF63
:100200009B01AC0197FF12C08DE22AA33BA34CA334
:100210005DA30E94B7002AA13BA14CA15DA150950E
:100220004095309521953F4F4F4F5F4F19A28E015A
:100230000F5D1F4F8AE0C82ED12CE12CF12CCA0192
:10024000B901A70196010E946E11605DF8016293E9
:100250008F01211531054105510589F7F80181917B
:100260008F010E94B700F80180818111F7CFA59618
:100270000FB6F894DEBF0FBECDBFDF91CF911F91B7
:100280000F91FF90EF90DF90CF9008958F929F9203
:10029000AF92BF920F931F93CF93DF93CDB7DEB78B
:1002A000A1970FB6F894DEBF0FBECDBF19A24230A2
:1002B00008F44AE08E010F5D1F4F842E912CA12C73
:1002C000B12CA50194010E944C11E62FB901CA017D
:1002D00001501109EA3014F4E05D01C0E95CD80175
:1002E000EC93232B242B252B61F7F80181918F01AF
:1002F0000E94B700D8018C918111F7CFA1960FB65B
:10030000F894DEBF0FBECDBFDF91CF911F910F914B
:10031000BF90AF909F908F90089542E00E94460159
:100320008AE00C94B700EF92FF920F931F93CF9344
:10033000DF93CDB7DEB762970FB6F894DEBF0FBE7E
:10034000CDBF7C0197FF08C08DE26A8B0E94B70089
:10035000F194E194F1086A89198A623008F46AE03C
:100360008E010F5E1F4F262F30E0C701B9010E949A
:1003700038117B01015011098A3014F490E301C057
:1003800097E3980FF8019083672B79F7F801819133
:100390008F010E94B700F80180818111F7CF62962A
:1003A0000FB6F894DEBF0FBECDBFDF91CF911F9186
:1003B0000F91FF90EF9008950F931F93CF93DF93CA
:1003C0008C019C01E9012F5F3F4F48814111FACF19
:1003D000C81BD90B49F0C80FC01731F0F801819143
:1003E0008F010E94B700F8CFDF91CF911F910F913D
:1003F00008950E94DC018AE00C94B7008F929F92CE
:10040000AF92BF92CF92DF92EF92FF92CF93DF93A2
:100410006B017C01C42F2FEF3FEF4FE75FE40E9499
:10042000400F181674F488E191E0DF91CF91FF90AE
:10043000EF90DF90CF90BF90AF909F908F900C94F3
:10044000DC012FEF3FEF4FE75FECC701B6010E94E1
:10045000BA0D87FDE8CF20E030E0A901C701B60161
:100460000E94BA0D87FF07C08DE20E94B700F7FA1D
:10047000F094F7F8F094D0E060E070E080E09FE363
:10048000DC1741F020E030E040E251E40E94BF0D73
:10049000DF5FF6CF9B01AC01C701B6010E94DC0C07
:1004A0006B017C010E94380E4B015C010E94670EBB
:1004B0009B01AC01C701B6010E94DB0C6B017C0102
:1004C0004AE0C501B4010E944601CC2319F08EE236
:1004D0000E94B700CC2301F120E030E040E251E47B
:1004E000C701B6010E944D0F4B015C010E94380EFE
:1004F0006B017C01CB010E94BE00B60180E090E060
:100500000E94670E9B01AC01C501B4010E94DB0C87
:100510006B017C01C150DECFDF91CF91FF90EF9056
:10052000DF90CF90BF90AF909F908F9008950F93E2
:100530001F93CF938C01C62F8CE191E00E94DC01C8
:10054000C8010E94DC0188E291E00E94DC0160E1C8
:100550008C2F90E00E94930189E391E0CF911F914D
:100560000F910C94F901CF93DF93EC018CE191E0B2
:100570000E94DC01CE01DF91CF910C94F9018BE355
:1005800091E00E94DC018091B900887F60E190E0F9
:100590000E94930189E391E00C94F901882311F002
:1005A00084EC01C084E88093BC008091BC0087FF8C
:1005B000FCCF8091B900887F803529F08091B90007
:1005C000887F883519F48091BB0008950E94BF028E
:1005D000FACFCF93DF93D82F81E00E94CE02C82FAD
:1005E0008D2F0E94CE022C2F30E0322F2227A9011E
:1005F000482BCA01DF91CF9108958093BB0084E816
:100600008093BC008091BC0087FFFCCF8091B90033
:10061000887F883259F08091B900887F803321F437
:1006200081E691E00C94B3020C94BF0208951F93ED
:10063000CF93DF931F92CDB7DEB7182F84EA809354
:10064000BC008091BC0087FFFCCF8091B900887FFF
:10065000883029F08091B900887F8031B9F5812FE9
:10066000880F862B8093BB0084E88093BC00809128
:10067000BC0087FFFCCF2091B900287F30E06111DA
:1006800003C088E190E002C080E490E028173907B9
:1006900021F18091B900887F883421F4612F8FE6A1
:1006A00091E008C08091B900887F803249F4612FC1
:1006B00083E891E00F90DF91CF911F910C94970206
:1006C0000F90DF91CF911F910C94BF0287E991E0C9
:1006D00069830E94B3026981C2CF0F90DF91CF91ED
:1006E0001F9108950F931F93CF93DF93EC0160E068
:1006F00088E60E9417038BE30E94FD0261E088E612
:100700000E94170381E00E94E90204E114E0F8016D
:1007100020813181820F931F9983888381E00E9419
:10072000E902F80122813381820F931F9B838A8320
:1007300081E00E94E902F80124813581820F931F34
:100740009D838C8381E00E94E9029F838E8381E0F8
:100750000E94E902F80126813781820F931F998751
:10076000888781E00E94E902F80120853185820FA7
:10077000931F9B878A8780E00E94E902F801228507
:100780003385820F931F9D878C8784E98093BC00FB
:10079000CE01DF91CF911F910F9108951F920F927B
:1007A0000FB60F921124CF92DF92EF92FF920F9328
:1007B0001F932F933F934F935F936F937F938F93E9
:1007C0009F93AF93BF93EF9329B1309136043227B3
:1007D000F8948091F8039091F903A091FA03B091F5
:1007E000FB0346B5BA2FA92F982F8827842B78941E
:1007F00020933604789432FF32C04091FC0350912C
:10080000FD036091FE037091FF0322FD20C07C0177
:100810008D01E41AF50A060B170BB801A701670151
:1008200078010DEDC01A05E0D00AE108F1081BE8D7
:10083000C1161AE0D106E104F10488F440930001E6
:1008400050930101609302017093030108C08093EB
:10085000FC039093FD03A093FE03B093FF0334FFCA
:1008600032C04091000450910104609102047091E3
:10087000030424FD20C07C018D01E41AF50A060B57
:10088000170BB801A701670178010DEDC01A05E04B
:10089000D00AE108F1081BE8C1161AE0D106E1040C
:1008A000F10488F44093040150930501609306011C
:1008B0007093070108C08093000490930104A093F3
:1008C0000204B093030435FF32C0409104045091F8
:1008D0000504609106047091070425FD20C07C0189
:1008E0008D01E41AF50A060B170BB801A701670181
:1008F00078010DEDC01A05E0D00AE108F1081BE807
:10090000C1161AE0D106E104F10488F4409308010D
:100910005093090160930A0170930B0108C0809302
:10092000040490930504A0930604B093070436FFD3
:100930002AC0409108045091090460910A04709102
:100940000B0426FD18C0841B950BA60BB70BAC013E
:10095000BD014D5D5540610971094B385A40610533
:10096000710588F480930C0190930D01A0930E0102
:10097000B0930F0108C08093080490930904A093DA
:100980000A04B0930B04EF91BF91AF919F918F91A7
:100990007F916F915F914F913F912F911F910F9197
:1009A000FF90EF90DF90CF900F900FBE0F901F90B1
:1009B00018951F920F920FB60F9211242F933F9309
:1009C0004F935F936F937F938F939F93AF93BF9357
:1009D000EF93FF9387EE93E00E94F901FF91EF916F
:1009E000BF91AF919F918F917F916F915F914F9147
:1009F0003F912F910F900FBE0F901F9018951F924F
:100A00000F920FB60F9211248F939F93AF93BF93C2
:100A10008091F8039091F903A091FA03B091FB0340
:100A20000196A11DB11D8093F8039093F903A09343
:100A3000FA03B093FB03BF91AF919F918F910F90F9
:100A40000FBE0F901F90189583B18093370489B122
:100A5000809336040895CF93DF93CDB7DEB7C255A8
:100A6000D1090FB6F894DEBF0FBECDBF8091C10093
:100A700088608093C10088E08093C40087EA91E099
:100A80000E94F90110926400539A84B18E6084B977
:100A900080918000816A809380008091B000816A9B
:100AA0008093B00080918100836080938100809169
:100AB000B10084608093B1008BB1846F8BB9289AA8
:100AC00080916B00816080936B0080916D00846FDA
:100AD00080936D00809168008560809368008091AC
:100AE00064008F77809364008CE08093B8008091DD
:100AF000B9008C7F8093B90060E088E60E941703FC
:100B00008BE60E94FD0280E80E94FD0214E910932A
:100B1000BC000FEF20E732E0015020403040E1F709
:100B200000C0000060E088E60E9417038BE60E9488
:100B3000FD0283E00E94FD0260E088E60E94170348
:100B40008AE10E94FD0280E00E94FD0288E10E948D
:100B5000FD0280E10E94FD0280E00E94FD0260E053
:100B600088E60E94170387E30E94FD0282E00E944C
:100B7000FD021093BC008FE99FE00197F1F700C0E0
:100B80000000109215041092140410921704109291
:100B90001604109219041092180410921B0410925B
:100BA0001A0410921D0410921C0410921F0410923B
:100BB0001E048E010F5F1F4F88E1D8011D928A9598
:100BC000E9F7C12CD12C7E01B9E1EB0EF11CC70174
:100BD0000E947203EFEFCE16D10409F00CF46CC042
:100BE000898D9A8D092E000CAA0BBB0B49815A8165
:100BF0006B817C81840F951FA61FB71F89839A8301
:100C0000AB83BC838B8D9C8D092E000CAA0BBB0B78
:100C10004D815E816F817885840F951FA61FB71F58
:100C20008D839E83AF83B8878D8D9E8D092E000C9A
:100C3000AA0BBB0B49855A856B857C85840F951F54
:100C4000A61FB71F89879A87AB87BC8789A19AA1FE
:100C5000092E000CAA0BBB0B4D855E856F8578892C
:100C6000840F951FA61FB71F8D879E87AF87B88BF0
:100C70008BA19CA1092E000CAA0BBB0B49895A8998
:100C80006B897C89840F951FA61FB71F898B9A8B50
:100C9000AB8BBC8B8DA19EA1092E000CAA0BBB0BAC
:100CA0004D895E896F89788D840F951FA61FB71FA8
:100CB0008D8B9E8BAF8BB88F8FE193E00197F1F70F
:100CC00000C000009FEFC91AD90AC114A2E0DA06D9
:100CD00009F07DCFF801A4E1B4E041915191619117
:100CE0007191452F562F672F772767FD7A9551957C
:100CF000419551094D935D93EE15FF0571F7809174
:100D0000180490911904905F90931904809318042B
:100D100060E08EE10E94170380E00E94FD0280E700
:100D20000E94FD0280E20E94FD0280E00E94FD021E
:100D300004E90093BC0060E087E70E9417038AEA99
:100D40000E94FD0261E087E70E94170381E00E9494
:100D5000E902909321048093200481E00E94E9023B
:100D6000909323048093220481E00E94E9029093EF
:100D700025048093240481E00E94E90290932704D3
:100D80008093260481E00E94E902909329048093D5
:100D9000280481E00E94E90290932B0480932A04A6
:100DA00081E00E94E90290932D0480932C0481E05D
:100DB0000E94E90290932F0480932E0481E00E9408
:100DC000E902909331048093300481E00E94E902AB
:100DD000909333048093320480E00E94E902909360
:100DE0003504809334040093BC0083EB91E00E94AF
:100DF000F90160E087E70E9417030093BC008BECC9
:100E000091E00E94F90160E08EE10E94170380E00A
:100E10000E94FD0261E08EE10E94170381E00E94C2
:100E2000CE02182F81EE91E00E94DC01612F6076E6
:100E300070E035E0759567953A95E1F7072E000C5F
:100E4000880B990B0E948D018EEE91E00E94DC01CF
:100E5000612F6C7170E07595679575956795072E94
:100E6000000C880B990B0E948D018BEF91E00E9482
:100E7000DC01612F637070E080E090E00E948D01E2
:100E800081E00E94CE02182F88E092E00E94DC01EF
:100E9000612F62956695677070E080E090E00E9437
:100EA0008D0180E00E94CE02182F85E192E00E9421
:100EB000DC01612F70E0660F672F661F770B072E2E
:100EC000000C880B990B0E948D018BE192E00E942F
:100ED000DC01612F637070E080E090E00E948D0182
:100EE0000093BC0088E292E00E94F90160E080E596
:100EF0000E9417030093BC008DE392E00E94F90169
:100F000060E08FE30E9417030093BC0088E592E045
:100F10000E94F90160E088E60E9417038AE10E94BE
:100F2000FD0261E088E60E94170381E00E94CE0284
:100F3000182F8BE792E00E94DC01612F677070E050
:100F400080E090E00E948D0181E00E94CE02182F87
:100F500085E892E00E94DC011871612F70E0E3E007
:100F600075956795EA95E1F7072E000C880B990BAC
:100F70000E948D0181E00E94CE02182F87E992E045
:100F80000E94DC011871612F70E0F3E075956795A0
:100F9000FA95E1F7072E000C880B990B0E948D0142
:100FA00080E00E94CE02182F89EA92E00E94DC01C4
:100FB000612F70E080E090E00E948D0160E088E6A3
:100FC0000E9417038BE60E94FD0261E088E60E9402
:100FD000170386EB92E00E94DC0181E00E94CE02C2
:100FE000682F70E080E090E00E948D0186EC92E036
:100FF0000E94DC0180E00E94CE02682F70E080E059
:1010000090E00E948D010093BC0086ED92E00E946A
:10101000F90180916E00816080936E0085B58260D9
:1010200085BD78948DEE92E00E94F901212C312C3F
:10103000BFEF2B1A3B0A6AE0C1010E9493018DEFBA
:1010400092E00E94DC0108E010E018AB0FA7C12C71
:10105000D12C7601812C912C5401412C512C320140
:1010600040E050E0BA011BA61CA61DA61EA61FA2AA
:1010700018A619A61AA6CE01019660964FAF6097E2
:1010800061965FAF619762966FAF629763967FAF2D
:1010900063970E94720389819A81092E000CAA0B22
:1010A000BB0B0FA118A529A53AA5080F191F2A1FC8
:1010B0003B1F0FA318A729A73AA78B819C81092E54
:1010C000000CAA0BBB0B0BA51CA52DA53EA5080F5C
:1010D000191F2A1F3B1F0BA71CA72DA73EA78D81F9
:1010E0009E81092E000CAA0BBB0B60964FAD60973A
:1010F00061965FAD619762966FAD629763967FADC3
:101100006397480F591F6A1F7B1F89859A85092E8F
:10111000000CAA0BBB0B480E591E6A1E7B1E8B854A
:101120009C85092E000CAA0BBB0B880E991EAA1ECB
:10113000BB1E8D859E85092E000CAA0BBB0BC80E0D
:10114000D91EEA1EFB1E2FA538A92150310938AB44
:101150002FA7232B09F08FCF8FA198A5A9A5BAA5FA
:10116000E3E0B595A79597958795EA95D1F78FA375
:1011700098A7A9A7BAA70BA51CA52DA53EA5F3E086
:101180003595279517950795FA95D1F70BA71CA7C5
:101190002DA73EA7DB01CA0113E0B595A79597954A
:1011A00087951A95D1F78BAF9CAFADAFBEAF9301CA
:1011B000820183E035952795179507958A95D1F794
:1011C00023960CAF1DAF2EAF3FAF2397A50194011F
:1011D00093E055954795379527959A95D1F727969A
:1011E0002CAF3DAF4EAF5FAF2797D701C60123E0CD
:1011F000B595A795979587952A95D1F72B968CAF9E
:101200009DAFAEAFBFAF2B9760E08EE10E9417039A
:1012100083E00E94FD0261E08EE10E94170381E0FD
:101220000E94E9029CAB8BAB81E00E94E9028C0139
:1012300080E00E94E9029EAB8DAB94E99093BC00E4
:10124000ABA9BCA9A115B04F21F482E093E00E94A4
:10125000B3022DA93EA92115304F21F486E193E078
:101260000E94B302011550EF150721F48AE293E0C2
:101270000E94B30260E087E70E94170384EF0E9498
:10128000FD028EE20E94FD0284E98093BC00AFE47F
:10129000B6E41197F1F700C0000060E087E70E9414
:1012A000170386EF0E94FD0261E087E70E941703A3
:1012B00080E00E94E9027C01B4E9B093BC0060E0E8
:1012C00087E70E94170384EF0E94FD0284EF0E94CB
:1012D000FD02E4E9E093BC00FFEB2EE331E0F150C6
:1012E00020403040E1F700C0000060E087E70E9446
:1012F000170386EF0E94FD0261E087E70E94170353
:1013000081E00E94CE02982E81E00E94CE02A82E9B
:1013100080E00E94CE02B82E44E94093BC00A701B1
:10132000FF0C660B770B80912A0490912B049A0195
:10133000AB01281B390B41095109A0912804B09138
:1013400029040E948D116B017C01FFE0F594E79464
:10135000D794C794FA95D1F7609132047091330411
:10136000CB01770FAA0BBB0BBC01CD01ABE0660F25
:10137000771F881F991FAA95D1F7209134043091C7
:1013800035042901330F66087708A7019601240D5B
:10139000351D461D571D0E946E11C20ED31EE41E40
:1013A000F51ED701C6010896A11DB11D9C01AD0116
:1013B000B4E05595479537952795BA95D1F72FAB5A
:1013C00038AF49AF5AAF30EAC31A3FE0D30AE10859
:1013D000F108A7019601C701B6010E9414119B01F3
:1013E000AC018CE055954795379527958A95D1F7AF
:1013F0002FA738AB49AB5AABA0912404B091250478
:10140000A70196010E9498112B013C019DE0759463
:101410006794579447949A95D1F7A0912C04B09172
:101420002D042FA538A949A95AA90E949811BB27B4
:1014300097FDB095AB2F840D951DA61DB71D029687
:10144000A11DB11D32E0B595A795979587953A9561
:10145000D1F79C01AD0130584F4F5F4FA09126044A
:10146000B09127040E948D112B013C014FE076942E
:101470006794579447944A95D1F7892D90E0A0E05E
:10148000B0E0BC01552744278A2D90E0A0E0B0E0F1
:10149000BA2FA92F982F8827840F951FA61FB71F33
:1014A0008B0D911DA11DB11D9C01AD01F5E0559560
:1014B000479537952795FA95D1F72F962CAF3DAFE5
:1014C0004EAF5FAF2F978090200490902104880C3E
:1014D000991C880C991C092C000CAA08BB08A09127
:1014E0002E04B0912F042FA538A949A95AA90E940A
:1014F00098119B01AC01BBE0559547953795279511
:10150000BA95D1F72FA738AB49AB5AABA0912204BB
:10151000B0912304A70196010E949811DC01CB0130
:101520002BE0B595A795979587952A95D1F72FA587
:1015300038A949A95AA9820F931FA41FB51F880D66
:10154000991DAA1DBB1D33E0880F991FAA1FBB1F41
:101550003A95D1F7BC01CD016E5F7F4F8F4F9F4F02
:1015600024E030E040E050E00E946E112F968CADF8
:101570009DADAEADBFAD2F97821B930BA40BB50BEA
:101580009C01AD01AAE6B8E10E948D1197FD0BC048
:10159000660F771F881F991FA30192010E944C11AB
:1015A00069017A010AC0A30192010E944C116901EC
:1015B0007A01CC0CDD1CEE1CFF1C9927F7FC9A95D8
:1015C0008F2D7E2D6D2D9B01AC010E9414119B016E
:1015D000AC01AEEDBBE00E948D114C01BB2497FC29
:1015E000B094AB2CA3E4B3EEA70196010E949B112B
:1015F000BB2797FDB095AB2F880E991EAA1EBB1E68
:101600009FEC890E9EE0991EA11CB11C44E0B5948C
:10161000A794979487944A95D1F7C80CD91CEA1CD3
:10162000FB1C8EE393E00E94DC01AFA1B8A5BD01D5
:10163000BB0F880B990B0E94690E25ED3FEF4FE71A
:1016400059E30E944D0F42E00E94FE0187E493E0BF
:101650000E94DC01EBA5FCA5BF01FF0F880B990BD5
:101660000E94690E25ED3FEF4FE759E30E944D0FB1
:1016700042E00E94FE0183E593E00E94DC012BAD75
:101680003CADB901330F880B990B0E94690E25ED13
:101690003FEF4FE759E30E944D0F42E00E94FE01E9
:1016A0008FE593E00E94DC0121964EAD5FAD21975E
:1016B000BA01550F880B990B0E94690E28EF31EC87
:1016C00049E75DE30E944D0F42E00E94FE018BE678
:1016D00093E00E94DC012596AEADBFAD2597BD011C
:1016E000BB0F880B990B0E94690E28EF31EC49E77C
:1016F0005DE30E944D0F42E00E94FE018BE793E004
:101700000E94DC012996EEADFFAD2997BF01FF0FC6
:10171000880B990B0E94690E28EF31EC49E75DE3D5
:101720000E944D0F42E00E94FE018BE893E00E9470
:10173000DC0185EE93E00E94DC0182E993E00E94E7
:10174000DC012BA93CA9B901330F880B990B0E942E
:10175000690E4B015C012FE135E84BE65FE30E9427
:101760004D0F40E00E94FE018BE993E00E94DC01F6
:101770004DA95EA9BA01550F880B990B0E94690EFD
:101780002B013C012FE135E84BE65FE30E944D0F52
:1017900040E00E94FE0188EA93E00E94DC01B8016B
:1017A000110F880B990B0E94690E2FE135E84BE66B
:1017B0005FE30E944D0F40E00E94FE0185EB93E045
:1017C0000E94DC01A5019401C301B2010E945B0DDE
:1017D00020EE3EE245E652E40E944D0F20E138E55E
:1017E00049E15FE30E94DB0C2B013C0120E030E08B
:1017F000A9010E94BA0D20E030E044EB53E487FFDA
:1018000005C0C301B2010E94DC0C0EC0C301B201CD
:101810000E94400F181654F420E030E044EB53E4EB
:10182000C301B2010E94DB0C2B013C01C301B201D8
:101830000E94380ECB010E94BE0085EE93E00E940C
:10184000DC0183EC93E00E94DC01C701B6010E9439
:10185000F0008BEC93E00E94DC016FA978AD89ADBC
:101860009AAD0E94690E20E030E040E251E40E940F
:10187000BF0D42E00E94FE0187ED93E00E94DC0173
:10188000C701B6010E94690E20E836EE45EC57E428
:101890000E94BF0D2EEA3CED42E45EE30E94BA0FC7
:1018A0009B01AC0160E070E080E89FE30E94DB0CEC
:1018B00020E03AE24DE257E40E944D0F0E94310EC3
:1018C0000E94F00081EE93E00E94DC012091000173
:1018D000309101014091020150910301A0E5B0E077
:1018E0000E948D11605C744D814091092CE83AE0B2
:1018F00040E050E00E944C11C90186559F4F9093E3
:1019000089008093880090938B0080938A002655ED
:101910002093B30020910001309101014091020118
:1019200050910301A0E5B0E00E948D11605C744D00
:10193000814091092CE83AE040E050E00E944C11CF
:1019400026552093B4008EEF92E00E94DC01809136
:101950008800909189000E94BE0084EE93E00E946E
:10196000DC0180918A0090918B000E94BE0084EE81
:1019700093E00E94DC018091B3006AE090E00E9455
:10198000930184EE93E00E94DC018091B4006AE050
:1019900090E00E9493018AE00E94B7005FEF83ED20
:1019A00090E3515080409040E1F700C000008AE091
:1019B0000E94B7003DCB5058BB27AA270E94F30CCA
:1019C0000C94060F0E94F80E38F00E94FF0E20F0D3
:1019D00039F49F3F19F426F40C94CE0E0EF4E095E2
:1019E000E7FB0C94C80EE92F0E94170F58F3BA17A3
:1019F000620773078407950720F079F4A6F50C9425
:101A0000390F0EF4E0950B2EBA2FA02D0B01B90162
:101A100090010C01CA01A0011124FF27591B99F064
:101A2000593F50F4503E68F11A16F040A22F232F70
:101A3000342F4427585FF3CF469537952795A795C0
:101A4000F0405395C9F77EF41F16BA0B620B730B67
:101A5000840BBAF09150A1F0FF0FBB1F661F771FD8
:101A6000881FC2F70EC0BA0F621F731F841F48F48D
:101A7000879577956795B795F7959E3F08F0B0CF16
:101A80009395880F08F09927EE0F979587950895FD
:101A90000E94F80E60F080E891E009F49EEF0E9449
:101AA000FF0E28F040E851E071F45EEF0CC00C949A
:101AB000CE0E0C94390FE92FE0780E94170F40F3F7
:101AC000092E052AB1F3261737074807590738F0BA
:101AD0000E2E07F8E02569F0E025E0640AC0EF6308
:101AE00007F8009407FADB01B9019D01DC01CA0186
:101AF000AD01EF930E94D60D0E94060F0E948B0D40
:101B00005F91552339F02BED3FE049E450FD49EC5E
:101B10000C94DC0C0895DF93DD27B92FBF7740E8E4
:101B20005FE31616170648075B0718F4D92F0E94C3
:101B3000450F9F938F937F936F930E940A10E8E65F
:101B4000F0E00E94D10E0E94060F2F913F914F911D
:101B50005F910E94600FDD2351F09058A2EA2AEDB8
:101B60003FE049EC5FE3D0785D270E94F30CDF9102
:101B70000C94060F0E94A40E08F481E008950E94C0
:101B8000D30D0C94060F0E94FF0E58F00E94F80E21
:101B900040F029F45F3F29F00C94C80E51110C94C9
:101BA0003A0F0C94CE0E0E94170F68F39923B1F3ED
:101BB000552391F3951B550BBB27AA276217730773
:101BC000840738F09F5F5F4F220F331F441FAA1F07
:101BD000A9F335D00E2E3AF0E0E832D091505040C3
:101BE000E695001CCAF72BD0FE2F29D0660F771F71
:101BF000881FBB1F261737074807AB07B0E809F057
:101C0000BB0B802DBF01FF2793585F4F3AF09E3FDB
:101C1000510578F00C94C80E0C943A0F5F3FE4F332
:101C2000983ED4F3869577956795B795F7959F5F1E
:101C3000C9F7880F911D9695879597F90895E1E06A
:101C4000660F771F881FBB1F621773078407BA07C9
:101C500020F0621B730B840BBA0BEE1F88F7E09524
:101C600008950E94380E6894B1110C943A0F0895AB
:101C70000E941F0F88F09F5798F0B92F9927B751EE
:101C8000B0F0E1F0660F771F881F991F1AF0BA9520
:101C9000C9F714C0B13091F00E94390FB1E0089536
:101CA0000C94390F672F782F8827B85F39F0B93F28
:101CB000CCF3869577956795B395D9F73EF49095D3
:101CC0008095709561957F4F8F4F9F4F0895E89451
:101CD00009C097FB3EF490958095709561957F4F74
:101CE0008F4F9F4F9923A9F0F92F96E9BB27939522
:101CF000F695879577956795B795F111F8CFFAF432
:101D0000BB0F11F460FF1BC06F5F7F4F8F4F9F4F62
:101D100016C0882311F096E911C0772321F09EE8C0
:101D2000872F762F05C0662371F096E8862F70E026
:101D300060E02AF09A95660F771F881FDAF7880F00
:101D40009695879597F90895990F0008550FAA0B56
:101D5000E0E8FEEF16161706E807F907C0F01216BE
:101D60001306E407F50798F0621B730B840B950BC1
:101D700039F40A2661F0232B242B252B21F4089516
:101D80000A2609F4A140A6958FEF811D811D0895B3
:101D900097F99F6780E870E060E008959FEF80EC1E
:101DA0000895DF93CF931F930F93FF92EF92DF92EB
:101DB0007B018C01689406C0DA2EEF010E94600F4F
:101DC000FE01E894A5912591359145915591A6F391
:101DD000EF010E94F30CFE019701A801DA9469F764
:101DE000DF90EF90FF900F911F91CF91DF910895B9
:101DF00000240A94161617061806090608950024EA
:101E00000A9412161306140605060895092E039463
:101E1000000C11F4882352F0BB0F40F4BF2B11F4D7
:101E200060FF04C06F5F7F4F8F4F9F4F089557FD36
:101E30009058440F551F59F05F3F71F04795880F38
:101E400097FB991F61F09F3F79F0879508951216CF
:101E500013061406551FF2CF4695F1DF08C016167B
:101E600017061806991FF1CF86957105610508942C
:101E70000895E894BB2766277727CB0197F9089543
:101E80000E94A40E08F48FEF08959B01AC0160E05E
:101E900070E080E89FE30C94BF0D0E94600F0C94EB
:101EA000060F0E94F80E38F00E94FF0E20F09523D6
:101EB00011F00C94C80E0C94CE0E11240C943A0F11
:101EC0000E94170F70F3959FC1F3950F50E0551FB7
:101ED000629FF001729FBB27F00DB11D639FAA277F
:101EE000F00DB11DAA1F649F6627B00DA11D661FCE
:101EF000829F2227B00DA11D621F739FB00DA11DEF
:101F0000621F839FA00D611D221F749F3327A00DA8
:101F1000611D231F849F600D211D822F762F6A2F44
:101F200011249F5750409AF0F1F088234AF0EE0FA9
:101F3000FF1FBB1F661F771F881F91505040A9F7D6
:101F40009E3F510580F00C94C80E0C943A0F5F3FF1
:101F5000E4F3983ED4F3869577956795B795F79512
:101F6000E7959F5FC1F7FE2B880F911D969587958A
:101F700097F90895FA01EE0FFF1F309621053105FC
:101F8000A1F16115710561F48038BFE39B0749F148
:101F900068949038810561F08038BFEF9B0741F06D
:101FA00099234AF5FF3FE1053105210519F1E89430
:101FB0000894E795D901AA2329F4AB2FBE2FF85F27
:101FC000D0F310C0FF5F70F4A695E0F7F73950F03A
:101FD00019F0FF3A38F49F779F930DD00F9007FCCC
:101FE0009058089546F00C94CE0E60E070E080E8C2
:101FF0009FE308954FE79F775F934F933F932F930E
:102000000E948A102F913F914F915F910E944D0F36
:102010000C9416109B01AC010C944D0F29F416F092
:102020000C94C80E0C94390F0C94CE0E0E941F0F06
:10203000A8F39638A0F707F80F92E8942BE33AEA52
:1020400048EB5FE70E94630F0F920F920F924DB71C
:102050005EB70F920E94D210E5E9F0E00E94D10E27
:102060004F915F91EF91FF91E595EE1FFF1F49F0B2
:10207000FE57E0684427EE0F441FFA95E1F74195BB
:10208000550B0E944C100F9007FE0C94450F0895BD
:102090000C94C80E0C9406110E941F0FD8F39923BC
:1020A000C9F3940F511DA3F39150504094F059F08F
:1020B000882332F0660F771F881F91505040C1F778
:1020C0009E3F51052CF7880F911D9695879597F99E
:1020D00008955F3FACF0983E9CF0BB2786957795BE
:1020E0006795B79508F4B1609395C1F7BB0F58F7A2
:1020F00011F460FFE8CF6F5F7F4F8F4F9F4FE3CFAB
:102100000C943A0F16F00C9406110C94CE0E6894B1
:102110000C94C80E0E941F0FA8F39923C1F3AEF3CD
:10212000DF93CF931F930F93FF92C92FDD2788234F
:102130002AF02197660F771F881FDAF720E030E03A
:1021400040E85FEB9FE3883920F0803E38F021962D
:102150008F770E94DC0CEDEBF0E004C00E94DC0CF9
:10216000EAEEF0E00E94D10E8B01BE01EC01FB2EE5
:102170006F5771097595771F880B990B0E94690E2F
:1021800028E132E741E35FE30E94600FAF2D980141
:10219000AE01FF900F911F91CF91DF910E94F30C40
:1021A0000C94060FFA01DC01AA0FBB1F9B01AC01C6
:1021B000BF5728F4222733274427507820C0B7512F
:1021C00090F4AB2F0024469537952795011CA395D5
:1021D000D2F3002071F0220F331F441FB395DAF3BE
:1021E0000ED00C94DB0C61307105A0E88A07B9466B
:1021F00030F49B01AC0166277727882790783096CA
:1022000021F0208331834283538308959F3F31F02F
:10221000915020F4879577956795B795880F911D14
:102220009695879597F90895DB018F939F930E9468
:102230008D11BF91AF91A29F800D911DA39F900D15
:10224000B29F900D11240895AA1BBB1B51E107C03A
:10225000AA1FBB1FA617B70710F0A61BB70B881F36
:10226000991F5A95A9F780959095BC01CD010895C5
:1022700097FB072E16F4009407D077FD09D00E9433
:10228000241107FC05D03EF4909581959F4F089549
:10229000709561957F4F0895A1E21A2EAA1BBB1B72
:1022A000FD010DC0AA1FBB1FEE1FFF1FA217B30722
:1022B000E407F50720F0A21BB30BE40BF50B661F38
:1022C000771F881F991F1A9469F7609570958095FC
:1022D00090959B01AC01BD01CF010895052E97FBA0
:1022E0001EF400940E94851157FD07D00E944C11E6
:1022F00007FC03D04EF40C94851150954095309511
:1023000021953F4F4F4F5F4F089590958095709561
:1023100061957F4F8F4F9F4F08950E94A611A59FF3
:10232000900DB49F900DA49F800D911D11240895D0
:10233000B7FF0C948D110E948D11821B930B089591
:10234000EE0FFF1F0590F491E02D0994A29FB001BC
:10235000B39FC001A39F700D811D1124911DB29FD9
:0E236000700D811D1124911D0895F894FFCF7A
:10236E00B80B0000B80B0000B80B0000B80B000053
:10237E00B80B0000B80B00006F7666004932435F61
:10238E004552524F523A3A00205B4932435F6164E4
:10239E0064726573733D3078005D004932435F456A
:1023AE0052524F523A3A556E73706563696669655B
:1023BE0064204572726F72205B545753523D3078D1
:1023CE00004932435F444154415F4E41434B004903
:1023DE0032435F4D525F414444524553535F4E4129
:1023EE00434B004932435F4D545F41444452455381
:1023FE00535F4E41434B004932435F535441525455
:10240E005F4552524F52005374617274696E672E5B
:10241E002E2E003E20436865636B696E6720426115
:10242E00726F6D657465722E2E2E003E20436865A8
:10243E00636B696E6720436F6D706173732E2E2E02
:10244E00004D415B313A305D203D20306200444FFB
:10245E005B323A305D203D203062004D535B313AA5
:10246E00305D203D20306200474E5B323A305D20B9
:10247E003D203062004853203D20004D445B313AF0
:10248E00305D203D203062003E20436865636B69FD
:10249E006E6720454550524F4D2E2E2E003E204346
:1024AE006865636B696E672045787465726E616CE2
:1024BE002050696E2E2E2E003E20436865636B6998
:1024CE006E67204779726F202620416363656C65C5
:1024DE00726F6D657465722E2E2E00444C50462020
:1024EE003D203062004759524F3A3A46535F5345AA
:1024FE004C203D203062004143433A3A4146535FFF
:10250E0053454C203D203062004649464F5F454EB4
:10251E00203D203062005057525F4D474D545F3181
:10252E00203D203062005057525F4D474D545F3270
:10253E00203D2030620046696E69736865642063D1
:10254E006865636B696E67204932432E005365746C
:10255E0075702046696E69736865642E00203E3E74
:10256E002000434F4D504153535F4F564552464CFA
:10257E004F573A3A5800434F4D504153535F4F56C1
:10258E004552464C4F573A3A5900434F4D504153DE
:10259E00535F4F564552464C4F573A3A5A004143B5
:1025AE00435F58203D2000672C204143435F592054
:1025BE003D2000672C204143435F5A203D20006799
:1025CE002C094759525F58203D20006465672F73D0
:1025DE002C204759525F59203D20006465672F73A8
:1025EE002C204759525F5A203D20006465672F7397
:1025FE002E004D41475F58203D20006D472C204D49
:10260E0041475F59203D20006D472C204D41475FCB
:10261E005A203D20006D472E2042656172696E671B
:10262E003A200050524553203D200050612C20543A
:10263E00454D50203D2000432C20414C54203D2040
:10264E00006D2E002C200050494E5F4220496E74C2
:08265E006572727570742100B1
:00000001FF
