:100000000C9435000C945D000C945D000C9420045D
:100010000C945D000C9421030C945D000C945D0025
:100020000C945D000C945D000C945D000C945D00DC
:100030000C945D000C945D000C945D000C945D00CC
:100040000C9446040C945D000C945D000C945D00CF
:100050000C945D000C945D000C945D000C945D00AC
:100060000C945D000C945D006B0411241FBECFEF57
:10007000D8E0DEBFCDBF14E0A0E0B1E0ECE6FBE1EC
:1000800002C005900D92AC34B107D9F724E0ACE47E
:10009000B4E001C01D92A839B207E1F710E0C5E352
:1000A000D0E004C02197FE010E949F0DC433D10708
:1000B000C9F70E9472040C94B40D0C940000F894DB
:1000C00080914C0490914D04A0914E04B0914F0446
:1000D00026B57894BA2FA92F982F8827BC01CD0177
:1000E000622B08959091C00095FFFCCF8093C600CD
:1000F00008950F931F93CF93DF93CDB7DEB761972A
:100100000FB6F894DEBF0FBECDBFBC01198A8E01B9
:100110000F5E1F4F2AE030E0CB01B9010E942B0D8A
:10012000805DF80182938F0161157105A9F7F801CF
:1001300081918F010E947200F80180818111F7CFB7
:1001400061960FB6F894DEBF0FBECDBFDF91CF91A1
:100150001F910F9108958F929F92AF92BF920F932C
:100160001F93CF93DF93CDB7DEB7A1970FB6F89467
:10017000DEBF0FBECDBF19A2423008F44AE08E01A7
:100180000F5D1F4F842E912CA12CB12CA501940141
:100190000E94530DE62FB901CA0101501109EA303E
:1001A00014F4E05D01C0E95CD801EC93232B242B0F
:1001B000252B61F7F80181918F010E947200D8010F
:1001C0008C918111F7CFA1960FB6F894DEBF0FBEC8
:1001D000CDBFDF91CF911F910F91BF90AF909F90B6
:1001E0008F90089542E00E94AB008AE00C94720068
:1001F000EF92FF920F931F93CF93DF93CDB7DEB7AC
:1002000062970FB6F894DEBF0FBECDBF7C0197FF9B
:1002100008C08DE26A8B0E947200F194E194F108AB
:100220006A89198A623008F46AE08E010F5E1F4FF6
:10023000262F30E0C701B9010E943F0D7B0101501C
:1002400011098A3014F490E301C097E3980FF80184
:100250009083672B79F7F80181918F010E947200DA
:10026000F80180818111F7CF62960FB6F894DEBF56
:100270000FBECDBFDF91CF911F910F91FF90EF90F7
:1002800008950F931F93CF93DF938C019C01E90195
:100290002F5F3F4F48814111FACFC81BD90B49F05E
:1002A000C80FC01731F0F80181918F010E947200D0
:1002B000F8CFDF91CF911F910F9108958F929F9268
:1002C000AF92BF92CF92DF92EF92FF926B017C01CF
:1002D0002FEF3FEF4FE75FE40E94B90C181664F46C
:1002E00088E191E0FF90EF90DF90CF90BF90AF90CA
:1002F0009F908F900C9441012FEF3FEF4FE75FEC01
:10030000C701B6010E94610B87FDEACF20E030E013
:10031000A901C701B6010E94610B87FF07C08DE2EA
:100320000E947200F7FAF094F7F8F0942AE037EDA3
:1003300043EA5BE3C701B6010E94F50A4B015C0189
:100340000E94D80B6B017C010E94070C9B01AC0141
:10035000C501B4010E94F40A4B015C014AE0C701E7
:10036000B6010E94AB008EE20E94720020E030E0F5
:1003700040E251E4C501B4010E94BE0C4B015C0196
:100380000E94D80B6B017C01CB010E947900B60161
:1003900080E090E00E94070C9B01AC01C501B40114
:1003A0000E94F40A20E030E040E251E40E94BE0CDA
:1003B0000E94D80BCB01FF90EF90DF90CF90BF90C1
:1003C000AF909F908F900C9479000E9441018AE039
:1003D0000C9472000F931F93CF938C01C62F8CE166
:1003E00091E00E944101C8010E94410188E291E030
:1003F0000E94410160E18C2F90E00E94F80089E3A7
:1004000091E0CF911F910F910C94E501CF93DF9371
:10041000EC018CE191E00E944101CE01DF91CF918E
:100420000C94E5018BE391E00E9441018091B900B9
:10043000887F60E190E00E94F80089E391E00C94ED
:10044000E501882311F084EC01C084E88093BC00AE
:100450008091BC0087FFFCCF8091B900887F8035F8
:1004600029F08091B900887F883519F48091BB000C
:1004700008950E941202FACFCF93DF93D82F81E024
:100480000E942102C82F8D2F0E9421022C2F30E0C4
:10049000322F2227A901482BCA01DF91CF9108955D
:1004A0008093BB0084E88093BC008091BC0087FFF0
:1004B000FCCF8091B900887F883259F08091B900D3
:1004C000887F803321F481E691E00C9406020C943D
:1004D000120208951F93CF93DF931F92CDB7DEB71B
:1004E000182F84EA8093BC008091BC0087FFFCCF6A
:1004F0008091B900887F883029F08091B900887F89
:100500008031B9F5812F880F862B8093BB0084E85A
:100510008093BC008091BC0087FFFCCF2091B90084
:10052000287F30E0611103C088E190E002C080E4E0
:1005300090E02817390721F18091B900887F88342D
:1005400021F4612F8FE691E008C08091B900887F87
:10055000803249F4612F83E891E00F90DF91CF91D1
:100560001F910C94EA010F90DF91CF911F910C9491
:10057000120287E991E069830E9406026981C2CF75
:100580000F90DF91CF911F9108950F931F93CF93F9
:10059000DF93EC0160E088E60E946A028BE30E9430
:1005A000500261E088E60E946A0281E00E943C02FB
:1005B00008E614E0F80120813181820F931F9983AE
:1005C000888381E00E943C02F80122813381820FFE
:1005D000931F9B838A8381E00E943C02F80124815F
:1005E0003581820F931F9D838C8381E00E943C02A2
:1005F0009B8B8A8B81E00E943C02F8012681378127
:10060000820F931F9D8B8C8B81E00E943C02F8012E
:1006100020853185820F931F9F8B8E8B80E00E94F7
:100620003C02F80122853385820F931F998F888FB2
:1006300084E98093BC00CE01DF91CF911F910F918F
:1006400008951F920F920FB60F921124CF92DF924E
:10065000EF92FF920F931F932F933F934F935F93CC
:100660006F937F938F939F93AF93BF93CF93DF93BA
:10067000EF93FF93D9B1C0919604CD270E945F00FC
:10068000D09396047894C2FF30C00091500410912A
:1006900051042091520430915304D2FD1EC06B01CD
:1006A0007C01C01AD10AE20AF30A970186014DEDD6
:1006B000C41A45E0D40AE108F1084BE8C4164AE040
:1006C000D406E104F10488F40093000110930101C1
:1006D000209302013093030108C06093500470938B
:1006E00051048093520490935304C4FF30C000918E
:1006F0005404109155042091560430915704D4FDB0
:100700001EC06B017C01C01AD10AE20AF30A9701EC
:1007100086014DEDC41A45E0D40AE108F1084BE822
:10072000C4164AE0D406E104F10488F400930401FD
:1007300010930501209306013093070108C06093D0
:100740005404709355048093560490935704C5FF46
:1007500030C0009158041091590420915A043091EE
:100760005B04D5FD1EC06B017C01C01AD10AE20AF0
:10077000F30A970186014DEDC41A45E0D40AE10859
:10078000F1084BE8C4164AE0D406E104F10488F409
:10079000009308011093090120930A0130930B0183
:1007A00008C0609358047093590480935A0490933E
:1007B0005B04C6FF2CC000915C0410915D04209185
:1007C0005E0430915F04D6FD1AC0DC01CB01801BB2
:1007D000910BA20BB30B8C019D010D5D15402109FE
:1007E00031090B381A402105310588F480930C013A
:1007F00090930D01A0930E01B0930F0108C0609378
:100800005C0470935D0480935E0490935F04FF9199
:10081000EF91DF91CF91BF91AF919F918F917F9198
:100820006F915F914F913F912F911F910F91FF9089
:10083000EF90DF90CF900F900FBE0F901F90189504
:100840001F920F920FB60F9211242F933F934F9345
:100850005F936F937F938F939F93AF93BF93EF9328
:10086000FF938AE394E00E94E501FF91EF91BF912D
:10087000AF919F918F917F916F915F914F913F9138
:100880002F910F900FBE0F901F9018951F920F92EF
:100890000FB60F9211248F939F93AF93BF938091C4
:1008A0004C0490914D04A0914E04B0914F040196D8
:1008B000A11DB11D80934C0490934D04A0934E0450
:1008C000B0934F04BF91AF919F918F910F900FBE46
:1008D0000F901F90189583B18093970489B18093EE
:1008E00096040895CF93DF93CDB7DEB7C255D109F3
:1008F0000FB6F894DEBF0FBECDBF8091C1008860F7
:100900008093C10088E08093C40087EA91E00E9450
:10091000E50110926400539A84B18E6084B980918D
:100920008000816A809380008091B000816A80930A
:10093000B000809181008460809381008091B1003B
:1009400086608093B1008BB1846F8BB9289A8091B7
:100950006B00816080936B0080916D00846F809349
:100960006D008091680085608093680080916400CC
:100970008F77809364008CE08093B8008091B900F9
:100980008C7F8093B90060E088E60E946A028BE663
:100990000E94500280E80E94500214E91093BC00AB
:1009A0000FEF20E732E0015020403040E1F700C077
:1009B000000060E088E60E946A028BE60E94500216
:1009C00083E00E94500260E088E60E946A028AE1A9
:1009D0000E94500280E00E94500288E10E94500272
:1009E00080E10E94500280E00E94500260E088E6B0
:1009F0000E946A0287E30E94500282E00E94500235
:100A00001093BC008FE99FE00197F1F700C0000050
:100A1000109269041092680410926B0410926A0498
:100A200010926D0410926C0410926F0410926E0478
:100A30001092710410927004109273041092720458
:100A40008E01055E1F4F88E1D8011D928A95E9F756
:100A5000E12CF12CCE0101960E94C502BFEFEB16EE
:100A6000F10409F00CF46CC089819A81092E000C04
:100A7000AA0BBB0B4B8D5C8D6D8D7E8D840F951FEE
:100A8000A61FB71F8B8F9C8FAD8FBE8F8B819C81D4
:100A9000092E000CAA0BBB0B4F8D58A169A17AA19E
:100AA000840F951FA61FB71F8F8F98A3A9A3BAA362
:100AB0008D819E81092E000CAA0BBB0B4BA15CA162
:100AC0006DA17EA1840F951FA61FB71F8BA39CA3AA
:100AD000ADA3BEA38D899E89092E000CAA0BBB0B6A
:100AE0004FA158A569A57AA5840F951FA61FB71F0A
:100AF0008FA398A7A9A7BAA78F89988D092E000C54
:100B0000AA0BBB0B4BA55CA56DA57EA5840F951FFD
:100B1000A61FB71F8BA79CA7ADA7BEA7898D9A8DCF
:100B2000092E000CAA0BBB0B4FA558A969A97AA9DD
:100B3000840F951FA61FB71F8FA798ABA9ABBAABA1
:100B4000EFE3F6E03197F1F700C00000FFEFEF1A96
:100B5000FF0AE11422E0F20609F07CCFF80128E652
:100B600034E0AE014D5C5F4F81919191A191B191C3
:100B7000892F9A2FAB2FBB27A7FDBA959195819509
:100B80009109D9018D939D939D01E417F50761F7B4
:100B900080916C0490916D04905F90936D048093AC
:100BA0006C0460E08EE10E946A0280E00E945002C4
:100BB00080E70E94500280E20E94500280E00E9482
:100BC000500204E90093BC0060E087E70E946A02DB
:100BD0008AEA0E94500261E087E70E946A0281E08F
:100BE0000E943C02909381048093800481E00E94E3
:100BF0003C02909383048093820481E00E943C0233
:100C0000909385048093840481E00E943C02909339
:100C100087048093860481E00E943C0290938904BB
:100C20008093880481E00E943C0290938B0480931F
:100C30008A0481E00E943C0290938D0480938C048E
:100C400081E00E943C0290938F0480938E0481E0A7
:100C50000E943C02909391048093900481E00E9452
:100C60003C02909393048093920480E00E943C02A3
:100C700090939504809394040093BC0083EB91E0DF
:100C80000E94E50160E087E70E946A020093BC00D1
:100C90008BEC91E00E94E50160E08EE10E946A0227
:100CA00080E00E94500261E08EE10E946A0281E0D1
:100CB0000E942102182F81EE91E00E944101612FD4
:100CC000607670E0A5E075956795AA95E1F7072E27
:100CD000000C880B990B0E94F2008EEE91E00E94AE
:100CE0004101612F6C7170E07595679575956795F9
:100CF000072E000C880B990B0E94F2008BEF91E0FD
:100D00000E944101612F637070E080E090E00E94DA
:100D1000F20081E00E942102182F88E092E00E94F8
:100D20004101612F62956695677070E080E090E008
:100D30000E94F20080E00E942102182F85E192E0DB
:100D40000E944101612F70E0660F672F661F770BCD
:100D5000072E000C880B990B0E94F2008BE192E0A9
:100D60000E944101612F637070E080E090E00E947A
:100D7000F2000093BC0088E292E00E94E50160E08E
:100D800080E50E946A020093BC008DE392E00E941D
:100D9000E50160E08FE30E946A020093BC0088E5F1
:100DA00092E00E94E50160E088E60E946A028AE122
:100DB0000E94500261E088E60E946A0281E00E947F
:100DC0002102182F8BE792E00E944101612F67708A
:100DD00070E080E090E00E94F20081E00E94210239
:100DE000182F85E892E00E9441011871612F70E090
:100DF00093E0759567959A95E1F7072E000C880B9F
:100E0000990B0E94F20081E00E942102182F87E9CD
:100E100092E00E9441011871612F70E023E0759506
:100E200067952A95E1F7072E000C880B990B0E9415
:100E3000F20080E00E942102182F89EA92E00E94CD
:100E40004101612F70E080E090E00E94F20060E0DC
:100E500088E60E946A028BE60E94500261E088E602
:100E60000E946A0286EB92E00E94410181E00E94AA
:100E70002102682F70E080E090E00E94F20086EC92
:100E800092E00E94410180E00E942102682F70E000
:100E900080E090E00E94F2000093BC0086ED92E0BA
:100EA0000E94E50180916E00816080936E0085B59F
:100EB000826085BD0E945F0078948DEE92E00E9472
:100EC000E501212C312C0E945F0023966CAF7DAF91
:100ED0008EAF9FAF2397BFEF2B1A3B0A6AE0C10189
:100EE0000E94F8008DEF92E00E94410108E010E0BE
:100EF0001CAF0BAF1FAA18AE19AE1AAE1BAA1CAAC4
:100F00001DAA1EAAC12CD12C7601812C912C540132
:100F1000412C512C320140E050E0BA01CE01019643
:100F200062964FAF629763965FAF639760966FAFBD
:100F3000609761967FAF61970E94C50289819A810F
:100F4000092E000CAA0BBB0B62964FAD62976396FD
:100F50005FAD639760966FAD609761967FAD619767
:100F6000480F591F6A1F7B1F8B819C81092E000C23
:100F7000AA0BBB0B480E591E6A1E7B1E8D819E81DB
:100F8000092E000CAA0BBB0B880E991EAA1EBB1EB5
:100F90008D899E89092E000CAA0BBB0BC80ED91E89
:100FA000EA1EFB1E8F89988D092E000CAA0BBB0B25
:100FB0000BA91CA92DA93EA9080F191F2A1F3B1F09
:100FC0000BAB1CAB2DAB3EAB898D9A8D092E000C63
:100FD000AA0BBB0B0FA918AD29AD3AAD080F191F0D
:100FE0002A1F3B1F0FAB18AF29AF3AAF2BAD3CAD5B
:100FF000215031093CAF2BAF232B09F08FCFDB0100
:10100000CA0123E0B595A795979587952A95D1F7BD
:1010100027968CAF9DAFAEAFBFAF279793018201EC
:1010200043E035952795179507954A95D1F72B9667
:101030000CAF1DAF2EAF3FAF2B97A501940163E01E
:1010400055954795379527956A95D1F72F962CAFEB
:101050003DAF4EAF5FAF2F97D701C60173E0B59597
:10106000A795979587957A95D1F7BC01990F880B2D
:10107000990B0E94090C28EF31EC49E75DE30E94CF
:10108000BE0C6BAF7CAF8DAF9EAF20E038EB48E875
:1010900057E40E94BE0C20E034E244E759E40E9489
:1010A000660B20917C0430917D0440917E04509128
:1010B0007F040E94F50A6B017C0160937C047093AD
:1010C0007D0480937E0490937F048BA99CA9ADA995
:1010D000BEA9E3E0B595A79597958795EA95D1F7D1
:1010E000BC01990F880B990B0E94090C28EF31EC79
:1010F00049E75DE30E94BE0C6BAB7CAB8DAB9EAB56
:1011000020E038EB48E857E40E94BE0C20E034E2CF
:1011100044E759E40E94660B2091780430917904E9
:1011200040917A0450917B040E94F50A2B013C0106
:10113000609378047093790480937A0490937B048D
:101140008FA998ADA9ADBAADF3E0B595A7959795E0
:101150008795FA95D1F7BC01990F880B990B0E94DE
:10116000090C28EF31EC49E75DE30E94BE0C6FAB40
:1011700078AF89AF9AAF20E038EB48E857E40E9497
:10118000BE0C20E034E244E759E40E94660B209153
:1011900074043091750440917604509177040E9454
:1011A000F50A4B015C01609374047093750480939D
:1011B00076049093770482E093E00E944101C70196
:1011C000B6010E945E018FE093E00E944101C301DD
:1011D000B2010E945E018CE193E00E944101C501D1
:1011E000B4010E945E0189E293E00E944101C701BF
:1011F000B6010E945E018AE00E94720087E393E0DC
:101200000E944101C701B6010E945E0184E493E09F
:101210000E944101C301B2010E945E018AE00E9466
:10122000720060E08EE10E946A0283E00E94500238
:1012300061E08EE10E946A0281E00E943C02AC0102
:1012400081E062964FAF629763965FAF63970E94AB
:101250003C028C0180E00E943C029C0184E9809366
:10126000BC0062964FAD629763965FAD6397411580
:10127000504F81F481E593E060962FAF60976196BF
:101280003FAF61970E94060261963FAD61976096FD
:101290002FAD60972115304F21F485E693E00E9431
:1012A00006020115104F21F489E793E00E9406021F
:1012B00060E087E70E946A0284EF0E9450028EE29B
:1012C0000E945002E4E9E093BC008FE496E40197A9
:1012D000F1F700C0000060E087E70E946A0286EF35
:1012E0000E94500261E087E70E946A0280E00E944B
:1012F0003C0294E99093BC0060E087E70E946A0298
:1013000084EF0E94500284EF0E945002A4E9A0934F
:10131000BC00BFEBEEE3F1E0B150E040F040E1F79C
:1013200000C0000060E087E70E946A0286EF0E942A
:10133000500261E087E70E946A0281E00E94210278
:1013400081E00E94210280E00E94210204E90093D2
:10135000BC008DE893E00E94410125962EAD3FAD83
:101360002597B901330F880B990B0E94090C25EDC5
:101370003FEF4FE759E30E94BE0C0E945E0186E9F1
:1013800093E00E94410129964EAD5FAD2997BA01C5
:10139000550F880B990B0E94090C25ED3FEF4FE785
:1013A00059E30E94BE0C0E945E0182EA93E00E9413
:1013B00041012D96AEADBFAD2D97BD01BB0F880B82
:1013C000990B0E94090C25ED3FEF4FE759E30E946E
:1013D000BE0C0E945E018EEA93E00E9441016BAD5B
:1013E0007CAD8DAD9EAD0E945E018AEB93E00E94C4
:1013F00041016BA97CA98DA99EA90E945E018AEC7E
:1014000093E00E9441016FA978AD89AD9AAD0E9429
:101410005E018AED93E00E944101C701B6010E947E
:101420005E018BEE93E00E944101C301B2010E9474
:101430005E0189EF93E00E944101C501B4010E9461
:101440005E0187E094E00E9441018AE00E94720000
:101450008CE094E00E944101C0900001D090010115
:10146000E0900201F09003014AE0C701B6010E943A
:10147000AB008AE194E00E94410160910401709107
:10148000050180910601909107014AE00E94AB009E
:101490008AE194E00E944101609108017091090184
:1014A00080910A0190910B014AE00E94AB008AE111
:1014B00094E00E94410160910C0170910D018091B6
:1014C0000E0190910F014AE00E94AB0089E391E088
:1014D0000E944101A7019601205D37404109510951
:1014E000AEE2B0E00E94940D20ED37E040E050E025
:1014F0000E94750DDA01C9014C96A11DB11D909392
:1015000089008093880090938B0080938A00809359
:10151000B3008091000190910101A0910201B0916E
:1015200003019C01AD01205D374041095109AEE244
:10153000B0E00E94940D20ED37E040E050E00E94C2
:10154000750DDA01C9014C96A11DB11D8093B4003F
:101550008AE00E9472008DE194E00E944101809136
:101560008800909189000E9479008AE194E00E94AD
:10157000410180918A0090918B000E9479008AE15C
:1015800094E00E9441018091B3006AE090E00E94E3
:10159000F8008AE194E00E9441018091B4006AE081
:1015A00090E00E94F80089E391E00E9441018CE202
:1015B00094E00E9441010E945F0023960CAD1DAD96
:1015C0002EAD3FAD2397601B710B820B930B4AE04E
:1015D0000E94AB008FED9EE20197F1F700C0000082
:1015E0008AE00E9472006FCC5058BB27AA270E9445
:1015F0000C0B0C947F0C0E94710C38F00E94780C3C
:1016000020F039F49F3F19F426F40C946E0C0EF47C
:10161000E095E7FB0C94680CE92F0E94900C58F3BE
:10162000BA17620773078407950720F079F4A6F5C7
:101630000C94B20C0EF4E0950B2EBA2FA02D0B01DA
:10164000B90190010C01CA01A0011124FF27591B07
:1016500099F0593F50F4503E68F11A16F040A22F0D
:10166000232F342F4427585FF3CF4695379527957E
:10167000A795F0405395C9F77EF41F16BA0B620B7D
:10168000730B840BBAF09150A1F0FF0FBB1F661FC4
:10169000771F881FC2F70EC0BA0F621F731F841F07
:1016A00048F4879577956795B795F7959E3F08F02D
:1016B000B0CF9395880F08F09927EE0F97958795EF
:1016C00008950E94440C08F481E008950E947A0B6A
:1016D0000C947F0C0E94780C58F00E94710C40F022
:1016E00029F45F3F29F00C94680C51110C94B30C51
:1016F0000C946E0C0E94900C68F39923B1F355235F
:1017000091F3951B550BBB27AA2762177307840714
:1017100038F09F5F5F4F220F331F441FAA1FA9F3AA
:1017200035D00E2E3AF0E0E832D091505040E69598
:10173000001CCAF72BD0FE2F29D0660F771F881FF9
:10174000BB1F261737074807AB07B0E809F0BB0BEC
:10175000802DBF01FF2793585F4F3AF09E3F510500
:1017600078F00C94680C0C94B30C5F3FE4F3983E53
:10177000D4F3869577956795B795F7959F5FC9F7E9
:10178000880F911D9695879597F90895E1E0660F6A
:10179000771F881FBB1F621773078407BA0720F0E3
:1017A000621B730B840BBA0BEE1F88F7E09508954C
:1017B0000E94980C88F09F5798F0B92F9927B7513D
:1017C000B0F0E1F0660F771F881F991F1AF0BA95E5
:1017D000C9F714C0B13091F00E94B20CB1E0089585
:1017E0000C94B20C672F782F8827B85F39F0B93F77
:1017F000CCF3869577956795B395D9F73EF4909598
:101800008095709561957F4F8F4F9F4F0895E89415
:1018100009C097FB3EF490958095709561957F4F38
:101820008F4F9F4F9923A9F0F92F96E9BB279395E6
:10183000F695879577956795B795F111F8CFFAF4F6
:10184000BB0F11F460FF1BC06F5F7F4F8F4F9F4F27
:1018500016C0882311F096E911C0772321F09EE885
:10186000872F762F05C0662371F096E8862F70E0EB
:1018700060E02AF09A95660F771F881FDAF7880FC5
:101880009695879597F90895990F0008550FAA0B1B
:10189000E0E8FEEF16161706E807F907C0F0121683
:1018A0001306E407F50798F0621B730B840B950B86
:1018B00039F40A2661F0232B242B252B21F40895DB
:1018C0000A2609F4A140A6958FEF811D811D089578
:1018D00097F99F6780E870E060E008959FEF80ECE3
:1018E000089500240A941616170618060906089586
:1018F00000240A9412161306140605060895092EEC
:101900000394000C11F4882352F0BB0F40F4BF2B5A
:1019100011F460FF04C06F5F7F4F8F4F9F4F08959A
:1019200057FD9058440F551F59F05F3F71F0479590
:10193000880F97FB991F61F09F3F79F08795089575
:10194000121613061406551FF2CF4695F1DF08C094
:10195000161617061806991FF1CF869571056105B1
:1019600008940895E894BB2766277727CB0197F959
:1019700008950E94440C08F48FEF08950E94D10C42
:101980000C947F0C0E94710C38F00E94780C20F0AF
:10199000952311F00C94680C0C946E0C11240C948B
:1019A000B30C0E94900C70F3959FC1F3950F50E01B
:1019B000551F629FF001729FBB27F00DB11D639F01
:1019C000AA27F00DB11DAA1F649F6627B00DA11DA7
:1019D000661F829F2227B00DA11D621F739FB00D4D
:1019E000A11D621F839FA00D611D221F749F3327BD
:1019F000A00D611D231F849F600D211D822F762F56
:101A00006A2F11249F5750409AF0F1F088234AF032
:101A1000EE0FFF1FBB1F661F771F881F915050409E
:101A2000A9F79E3F510580F00C94680C0C94B30C00
:101A30005F3FE4F3983ED4F3869577956795B79525
:101A4000F795E7959F5FC1F7FE2B880F911D96953F
:101A5000879597F90895AA1BBB1B51E107C0AA1FE0
:101A6000BB1FA617B70710F0A61BB70B881F991F3F
:101A70005A95A9F780959095BC01CD01089597FBE3
:101A8000072E16F4009407D077FD09D00E942B0D85
:101A900007FC05D03EF4909581959F4F0895709571
:101AA00061957F4F0895A1E21A2EAA1BBB1BFD0171
:101AB0000DC0AA1FBB1FEE1FFF1FA217B307E4072D
:101AC000F50720F0A21BB30BE40BF50B661F771F85
:101AD000881F991F1A9469F7609570958095909565
:101AE0009B01AC01BD01CF010895052E97FB1EF4AB
:101AF00000940E948C0D57FD07D00E94530D07FCE7
:101B000003D04EF40C948C0D509540953095219552
:101B10003F4F4F4F5F4F0895909580957095619519
:101B20007F4F8F4F9F4F08950E94A50DA59F900D49
:101B3000B49F900DA49F800D911D11240895EE0F68
:101B4000FF1F0590F491E02D0994A29FB001B39F6F
:101B5000C001A39F700D811D1124911DB29F700DB6
:0C1B6000811D1124911D0895F894FFCF01
:101B6C00B80B0000B80B0000B80B0000B80B00005D
:101B7C00B80B0000B80B00006F7666004932435F6B
:101B8C004552524F523A3A00205B4932435F6164EE
:101B9C0064726573733D3078005D004932435F4574
:101BAC0052524F523A3A556E737065636966696565
:101BBC0064204572726F72205B545753523D3078DB
:101BCC00004932435F444154415F4E41434B00490D
:101BDC0032435F4D525F414444524553535F4E4133
:101BEC00434B004932435F4D545F4144445245538B
:101BFC00535F4E41434B004932435F53544152545F
:101C0C005F4552524F52005374617274696E672E65
:101C1C002E2E003E20436865636B696E672042611F
:101C2C00726F6D657465722E2E2E003E20436865B2
:101C3C00636B696E6720436F6D706173732E2E2E0C
:101C4C00004D415B313A305D203D20306200444F05
:101C5C005B323A305D203D203062004D535B313AAF
:101C6C00305D203D20306200474E5B323A305D20C3
:101C7C003D203062004853203D20004D445B313AFA
:101C8C00305D203D203062003E20436865636B6907
:101C9C006E6720454550524F4D2E2E2E003E204350
:101CAC006865636B696E672045787465726E616CEC
:101CBC002050696E2E2E2E003E20436865636B69A2
:101CCC006E67204779726F202620416363656C65CF
:101CDC00726F6D657465722E2E2E00444C5046202A
:101CEC003D203062004759524F3A3A46535F5345B4
:101CFC004C203D203062004143433A3A4146535F09
:101D0C0053454C203D203062004649464F5F454EBE
:101D1C00203D203062005057525F4D474D545F318B
:101D2C00203D203062005057525F4D474D545F327A
:101D3C00203D2030620046696E69736865642063DB
:101D4C006865636B696E67204932432E0053657476
:101D5C0075702046696E69736865642E00203E3E7E
:101D6C0020003E206163635F616E675F783D002CED
:101D7C00206163635F616E675F793D002C20616356
:101D8C00635F616E675F7A3D002C20646174612E25
:101D9C00616E675F783D003E20696D6D2E616E67E8
:101DAC005F783D002C20696D6D2E616E675F793D0B
:101DBC0000434F4D504153535F4F564552464C4F85
:101DCC00573A3A5800434F4D504153535F4F564585
:101DDC0052464C4F573A3A5900434F4D504153538A
:101DEC005F4F564552464C4F573A3A5A004143437F
:101DFC005F58203D2000672C204143435F59203D14
:101E0C002000672C204143435F5A203D2000672C63
:101E1C00094759525F58203D20006465672F732C89
:101E2C00204759525F59203D20006465672F732C61
:101E3C00204759525F5A203D20006465672F732C50
:101E4C000920414E475F58203D20006465672C20D7
:101E5C00414E475F59203D20006465672C20414E60
:101E6C00475F5A203D20006465672E003E20525883
:101E7C005F56414C5545533A5B002C20003E205098
:101E8C00574D5F56414C5545533A5B000A3E207402
:101E9C00696D6520757365643D0050494E5F422045
:0C1EAC00496E746572727570742100003C
:00000001FF
