:100000000C9435000C945D000C945D000C94340449
:100010000C945D000C9435030C945D000C945D0011
:100020000C945D000C945D000C945D000C945D00DC
:100030000C945D000C945D000C945D000C945D00CC
:100040000C94AD040C945D000C945D000C945D0068
:100050000C945D000C945D000C945D000C945D00AC
:100060000C945D000C945D00D20411241FBECFEFF0
:10007000D8E0DEBFCDBF14E0A0E0B1E0ECEFFFE1DF
:1000800002C005900D92A637B107D9F725E0A6E783
:10009000B4E001C01D92AA3EB207E1F710E0C5E34B
:1000A000D0E004C02197FE010E94E70FC433D107BE
:1000B000C9F70E94F3040C94FC0F0C940000F89410
:1000C0008091760490917704A0917804B09179049E
:1000D00026B57894BA2FA92F982F8827BC01CD0177
:1000E000622B08959091C00095FFFCCF8093C600CD
:1000F00008950F931F93CF93DF93CDB7DEB761972A
:100100000FB6F894DEBF0FBECDBFBC01198A8E01B9
:100110000F5E1F4F2AE030E0CB01B9010E94730F40
:10012000805DF80182938F0161157105A9F7F801CF
:1001300081918F010E947200F80180818111F7CFB7
:1001400061960FB6F894DEBF0FBECDBFDF91CF91A1
:100150001F910F9108958AE00C9472008F929F92E4
:10016000AF92BF920F931F93CF93DF93CDB7DEB7BC
:10017000A1970FB6F894DEBF0FBECDBF19A24230D3
:1001800008F44AE08E010F5D1F4F842E912CA12CA4
:10019000B12CA50194010E949B0FE62FB901CA0161
:1001A00001501109EA3014F4E05D01C0E95CD801A6
:1001B000EC93232B242B252B61F7F80181918F01E0
:1001C0000E947200D8018C918111F7CFA1960FB6D1
:1001D000F894DEBF0FBECDBFDF91CF911F910F917D
:1001E000BF90AF909F908F9008950E94AE008AE0DC
:1001F0000C947200EF92FF920F931F93CF93DF93B3
:10020000CDB7DEB762970FB6F894DEBF0FBECDBF95
:100210007C0197FF08C08DE26A8B0E947200F19406
:10022000E194F1086A89198A623008F46AE08E0163
:100230000F5E1F4F262F30E0C701B9010E94870FC4
:100240007B01015011098A3014F490E301C097E357
:10025000980FF8019083672B79F7F80181918F014E
:100260000E947200F80180818111F7CF62960FB66B
:10027000F894DEBF0FBECDBFDF91CF911F910F91DC
:10028000FF90EF9008950F931F93CF93DF938C010E
:100290009C01E9012F5F3F4F48814111FACFC81BF4
:1002A000D90B49F0C80FC01731F0F80181918F01C7
:1002B0000E947200F8CFDF91CF911F910F910895A6
:1002C0000E9443018AE00C9472008F929F92AF9239
:1002D000BF92CF92DF92EF92FF92CF93DF936B01A9
:1002E0007C01C42F2FEF3FEF4FE75FE40E94010F27
:1002F000181674F482E391E0DF91CF91FF90EF90B4
:10030000DF90CF90BF90AF909F908F900C9443015F
:100310002FEF3FEF4FE75FECC701B6010E94A20D40
:1003200087FDE8CF20E030E0A901C701B6010E94B7
:10033000A20D87FF07C08DE20E947200F7FAF094C9
:10034000F7F8F094D0E060E070E080E09FE3DC1725
:1003500041F020E030E040E251E40E94A70DDF5F71
:10036000F6CF9B01AC01C701B6010E94360D6B01AF
:100370007C010E94200E4B015C010E944F0E9B01EC
:10038000AC01C701B6010E94350D6B017C014AE04A
:10039000C501B4010E94AE00CC2319F08EE20E9488
:1003A0007200CC2301F120E030E040E251E4C701CB
:1003B000B6010E94060F4B015C010E94200E6B01EA
:1003C0007C01CB010E947900B60180E090E00E94A0
:1003D0004F0E9B01AC01C501B4010E94350D6B01AC
:1003E0007C01C150DECFDF91CF91FF90EF90DF9085
:1003F000CF90BF90AF909F908F9008950F931F93D1
:10040000CF938C01C62F86E391E00E944301C8017F
:100410000E94430182E491E00E94430160E18C2F3D
:1004200090E00E94FA0083E591E0CF911F910F9137
:100430000C946001CF93DF93EC0186E391E00E947E
:100440004301CE01DF91CF910C94600185E591E0ED
:100450000E9443018091B900887F60E190E00E9492
:10046000FA0083E591E00C946001882311F084EC9C
:1004700001C084E88093BC008091BC0087FFFCCF62
:100480008091B900887F803529F08091B900887FFC
:10049000883519F48091BB0008950E942602FACF96
:1004A000CF93DF93D82F81E00E943502C82F8D2F84
:1004B0000E9435022C2F30E0322F2227A901482B31
:1004C000CA01DF91CF9108958093BB0084E88093A7
:1004D000BC008091BC0087FFFCCF8091B900887F71
:1004E000883259F08091B900887F803321F48BE7FE
:1004F00091E00C941A020C94260208951F93CF9356
:10050000DF931F92CDB7DEB7182F84EA8093BC002B
:100510008091BC0087FFFCCF8091B900887F883034
:1005200029F08091B900887F8031B9F5812F880F3B
:10053000862B8093BB0084E88093BC008091BC0034
:1005400087FFFCCF2091B900287F30E0611103C004
:1005500088E190E002C080E490E02817390721F19B
:100560008091B900887F883421F4612F89E891E077
:1005700008C08091B900887F803249F4612F8DE9ED
:1005800091E00F90DF91CF911F910C94FE010F909D
:10059000DF91CF911F910C94260281EB91E069834A
:1005A0000E941A026981C2CF0F90DF91CF911F91F3
:1005B00008950F931F93CF93DF93EC0160E088E6DB
:1005C0000E947E028BE30E94640261E088E60E9442
:1005D0007E0281E00E94500202E914E0F8012081CD
:1005E0003181820F931F9983888381E00E9450029A
:1005F000F80122813381820F931F9B838A8381E0DC
:100600000E945002F80124813581820F931F9D833F
:100610008C8381E00E9450029B8B8A8B81E00E9438
:100620005002F80126813781820F931F9D8B8C8B9E
:1006300081E00E945002F80120853185820F931FCE
:100640009F8B8E8B80E00E945002F80122853385BB
:10065000820F931F998F888F84E98093BC00CE010D
:10066000DF91CF911F910F9108951F920F920FB6B6
:100670000F921124CF92DF92EF92FF920F931F936C
:100680002F933F934F935F936F937F938F939F939A
:10069000AF93BF93CF93DF93EF93FF93D9B1C09103
:1006A000D404CD270E945F00D093D4047894C2FF75
:1006B00030C000917A0410917B0420917C04309129
:1006C0007D04D2FD1EC06B017C01C01AD10AE20A72
:1006D000F30A970186014DEDC41A45E0D40AE108FA
:1006E000F1084BE8C4164AE0D406E104F10488F4AA
:1006F000009318011093190120931A0130931B01E4
:1007000008C060937A0470937B0480937C04909378
:100710007D04C4FF30C000917E0410917F042091BD
:10072000800430918104D4FD1EC06B017C01C01A8D
:10073000D10AE20AF30A970186014DEDC41A45E099
:10074000D40AE108F1084BE8C4164AE0D406E104F3
:10075000F10488F400931C0110931D0120931E01E5
:1007600030931F0108C060937E0470937F048093D0
:10077000800490938104C5FF30C0009182041091E1
:1007800083042091840430918504D5FD1EC06B0143
:100790007C01C01AD10AE20AF30A970186014DEDE5
:1007A000C41A45E0D40AE108F1084BE8C4164AE04F
:1007B000D406E104F10488F4009320011093210190
:1007C000209322013093230108C060938204709328
:1007D00083048093840490938504C6FF2CC0009109
:1007E0008604109187042091880430918904D6FDF5
:1007F0001AC0DC01CB01801B910BA20BB30B8C0147
:100800009D010D5D1540210931090B381A40210564
:10081000310588F48093240190932501A09326014B
:10082000B093270108C06093860470938704809377
:10083000880490938904FF91EF91DF91CF91BF914C
:10084000AF919F918F917F916F915F914F913F9168
:100850002F911F910F91FF90EF90DF90CF900F900D
:100860000FBE0F901F9018951F920F920FB60F9208
:1008700011240F931F932F933F934F935F936F9385
:100880007F938F939F93AF93BF93CF93DF93EF9318
:10089000FF93C3B1D091D504DC270E945F00C093C1
:1008A000D5047894D0FF2CC000918E0410918F0451
:1008B0002091900430919104C0FD1AC0DC01CB015D
:1008C000801B910BA20BB30B8C019D010D5D15409C
:1008D000210931090B381A402105310588F480932C
:1008E0002C0190932D01A0932E01B0932F0108C0ED
:1008F00060938E0470938F0480939004909391047E
:1009000080912C0190912D01A0912E01B0912F0189
:10091000843C9940A105B10528F410923101109250
:10092000300106C081E090E0909331018093300166
:10093000FF91EF91DF91CF91BF91AF919F918F91F7
:100940007F916F915F914F913F912F911F910F91E7
:100950000F900FBE0F901F9018951F920F920FB619
:100960000F9211248F939F93AF93BF93809176043E
:1009700090917704A0917804B09179040196A11D1B
:10098000B11D8093760490937704A0937804B0937C
:100990007904BF91AF919F918F910F900FBE0F90EF
:1009A0001F901895CF93DF93EFEFF4E088E2DF011B
:1009B0009997ED01982F19929A95E9F798961C92BC
:1009C00010821182128213821482BE96C6E0E33135
:1009D000FC0769F783B18093D50489B18093D4046F
:1009E000DF91CF910895CF93DF93CDB7DEB7C05598
:1009F000D1090FB6F894DEBF0FBECDBF8091C10004
:100A000088608093C10088E08093C40081EC91E00D
:100A10000E94600110926400539A84B18E6084B980
:100A200080918000816A809380008091B000816A0B
:100A30008093B000809181008460809381008091D8
:100A4000B10086608093B1008BB1846F8BB9289A16
:100A500080916B00816080936B0080916D00846F4A
:100A600080936D008091680085608093680080911C
:100A700064008F77809364008CE08093B80080914D
:100A8000B9008C7F8093B90060E088E60E947E0206
:100A90008BE60E94640280E80E94640214E91093CD
:100AA000BC000FE728E331E0015020403040E1F77F
:100AB00000C0000060E088E60E947E028BE60E9493
:100AC000640283E00E94640260E088E60E947E0285
:100AD0008AE10E94640280E00E94640288E10E9430
:100AE000640280E10E94640280E00E94640260E08F
:100AF00088E60E947E0287E30E94640282E00E94F0
:100B000064021093BC008FEC97E00197F1F700C0EE
:100B10000000109293041092920410929504109287
:100B200094041092970410929604109299041092D3
:100B3000980410929B0410929A0410929D041092B3
:100B40009C048E01055E1F4F88E1D8011D928A9595
:100B5000E9F7E12CF12CCE0101960E94D902BFEFFA
:100B6000EB16F10409F00CF46CC089819A81092E0E
:100B7000000CAA0BBB0B4B8D5C8D6D8D7E8D840F95
:100B8000951FA61FB71F8B8F9C8FAD8FBE8F8B813C
:100B90009C81092E000CAA0BBB0B4F8D58A169A19B
:100BA0007AA1840F951FA61FB71F8F8F98A3A9A3A3
:100BB000BAA38D819E81092E000CAA0BBB0B4BA101
:100BC0005CA16DA17EA1840F951FA61FB71F8BA3EB
:100BD0009CA3ADA3BEA38D899E89092E000CAA0BF0
:100BE000BB0B4FA158A569A57AA5840F951FA61F19
:100BF000B71F8FA398A7A9A7BAA78F89988D092E89
:100C0000000CAA0BBB0B4BA55CA56DA57EA5840FA4
:100C1000951FA61FB71F8BA79CA7ADA7BEA7898D41
:100C20009A8D092E000CAA0BBB0B4FA558A969A9D8
:100C30007AA9840F951FA61FB71F8FA798ABA9ABE2
:100C4000BAABEFE1F3E03197F1F700C00000FFEF3E
:100C5000EF1AFF0AE11422E0F20609F07CCFF80156
:100C600022E934E0AE014D5C5F4F81919191A191F9
:100C7000B191892F9A2FAB2FBB27A7FDBA959195DC
:100C800081959109D9018D939D939D01E417F507F5
:100C900061F78091960490919704905F90939704E8
:100CA0008093960460E08EE10E947E0280E00E94C4
:100CB000640280E70E94640280E20E94640280E095
:100CC0000E94640204E90093BC0060E087E70E9490
:100CD0007E028AEA0E94640261E087E70E947E0247
:100CE00081E00E9450029093AB048093AA0481E0BB
:100CF0000E9450029093AD048093AC0481E00E9466
:100D000050029093AF048093AE0481E00E945002A1
:100D10009093B1048093B00481E00E9450029093BC
:100D2000B3048093B20481E00E9450029093B50412
:100D30008093B40481E00E9450029093B7048093A2
:100D4000B60481E00E9450029093B9048093B804E5
:100D500081E00E9450029093BB048093BA0481E02A
:100D60000E9450029093BD048093BC0480E00E94D6
:100D700050029093BF048093BE040093BC008DEC9E
:100D800091E00E94600160E087E70E947E0200938C
:100D9000BC0085EE91E00E94600160E08EE10E945F
:100DA0007E0280E00E94640261E08EE10E947E0289
:100DB00081E00E943502182F8BEF91E00E944301E1
:100DC000612F607670E025E0759567952A95E1F7CB
:100DD000072E000C880B990B42E00E94F50088E07A
:100DE00092E00E944301612F6C7170E075956795E8
:100DF00075956795072E000C880B990B42E00E94B1
:100E0000F50085E192E00E944301612F637070E07C
:100E100080E090E042E00E94F50081E00E9435020F
:100E2000182F82E292E00E944301612F629566953D
:100E3000677070E080E090E042E00E94F50080E0A2
:100E40000E943502182F8FE292E00E944301612F29
:100E500070E0660F672F661F770B072E000C880B5C
:100E6000990B42E00E94F50085E392E00E94430165
:100E7000612F637070E080E090E042E00E94F50036
:100E80000093BC0082E492E00E94600160E080E593
:100E90000E947E020093BC0087E592E00E94600100
:100EA00060E08FE30E947E020093BC0082E792E044
:100EB0000E94600160E088E60E947E028AE10E9452
:100EC000640261E088E60E947E0281E00E943502B1
:100ED000182F85E992E00E944301612F677070E04E
:100EE00080E090E042E00E94F50081E00E9435023F
:100EF000182F8FE992E00E9443011871612F70E072
:100F000053E0759567955A95E1F7072E000C880B0D
:100F1000990B42E00E94F50081E00E943502182FF3
:100F200081EB92E00E9443011871612F70E0E3E0D1
:100F300075956795EA95E1F7072E000C880B990BDC
:100F400042E00E94F50080E00E943502182F83ECF9
:100F500092E00E944301612F70E080E090E042E067
:100F60000E94F50060E088E60E947E028BE60E9407
:100F7000640261E088E60E947E0280ED92E00E94B9
:100F8000430181E00E943502682F70E080E090E02C
:100F900042E00E94F50080EE92E00E94430180E072
:100FA0000E943502682F70E080E090E042E00E94ED
:100FB000F5000093BC0080EF92E00E9460018091F8
:100FC0006E00816080936E0085B5826085BD7894E7
:100FD0000E945F0021966CAF7DAF8EAF9FAF2197CF
:100FE00087E093E00E94600118EEE12E13E0F12EFD
:100FF00000E010E02596ECAEFDAE0EAF1FAF2597DA
:1010000018AE1FAAAFE02A2E312C0FA918AD0F5F22
:101010001F4F18AF0FAB6AE0C8010E94FA0087E1CA
:1010200093E00E9443018091300190913101892B1E
:1010300009F04AC0109289001092880010928B002B
:1010400010928A001092B3001092B4001FEF23EDAB
:1010500030E3115020403040E1F700C0000046E48A
:1010600050E0509389004093880050938B00409348
:101070008A0086E48093B3008093B4005FEF83ED31
:1010800090E3515080409040E1F700C00000309262
:1010900089002092880030928B0020928A008FE095
:1010A0008093B3008093B400AFEFB3EDE0E3A150C1
:1010B000B040E040E1F700C00000EE24E394F12CE2
:1010C000F0923101E09230011EEFC12E14E0D12EDA
:1010D00000E011E01AAF09AF08E111E01CAF0BAF5F
:1010E0000FEF14E088E1882E81E0982E20E031E0B7
:1010F0003CAB2BABE12CF12C5401D4014D905D9015
:101100006D907C90F60180818A30D0F5882341F182
:10111000D8012C912F5F2C93BEE2BE9DC001BF9DD4
:10112000900D1124E4E02E9F800D911D1124FC01EF
:10113000EA52FB4F4082518262827382F8018181C0
:101140009281A381B481480E591E6A1E7B1E76943B
:1011500067945794479441825282638274820BC091
:10116000F801B9974082518262827382F80141820C
:10117000528263827482D6018C918F5F8C932DC0D2
:10118000F801808190E001966AE070E00E94870F8C
:101190008083880F991F880F991FFEE2FE9D9001A2
:1011A000FF9D300D1124820F931FFC01EA52FB4F6B
:1011B0004082518262827382F80181819281A3818F
:1011C000B481480E591E6A1E7B1E7694679457940C
:1011D00047944182528263827482F8014180528036
:1011E00063807480ABA9BCA94D925D926D927D9293
:1011F000BCABABAB8CE193E00E944301B4E08B0E3F
:10120000911CF50160817181828193814AE00E9485
:10121000AE0084E293E00E9443014AE0C301B201C0
:101220000E94AE00FFEFEF1AFF0A2EE2C20ED11CA1
:10123000025D1F4F36E0E316F10409F05DCF08E0D0
:1012400010E0412C512C3201C12CD12C7601812C83
:10125000912C5401CE0101960E94D9028D899E895C
:10126000092E000CAA0BBB0B880E991EAA1EBB1ED2
:101270008F89988D092E000CAA0BBB0BC80ED91EA6
:10128000EA1EFB1E898D9A8D092E000CAA0BBB0B42
:10129000480E591E6A1E7B1E01501109D9F6D50150
:1012A000C40163E0B595A795979587956A95D1F7A1
:1012B000BC01990F880B990B0E94510E28EF31EC5D
:1012C00049E75DE30E94060F6BAB7CAB8DAB9EAB39
:1012D00020E038EB48E857E40E94060F20E034E2B3
:1012E00044E759E40E94A70D2091A6043091A70479
:1012F0004091A8045091A9040E94360D4B015C0155
:101300006093A6047093A7048093A8049093A90403
:10131000D701C60173E0B595A795979587957A95FE
:10132000D1F7BC01990F880B990B0E94510E28EF41
:1013300031EC49E75DE30E94060F20E038EB48E816
:1013400057E40E94060F20E034E244E759E40E948B
:10135000A70D2091A2043091A3044091A4045091C0
:10136000A5040E94360D6B017C016093A20470936A
:10137000A3048093A4049093A504D301C201E3E0E5
:10138000B595A79597958795EA95D1F7BC01990FE3
:10139000880B990B0E94510E28EF31EC49E75DE371
:1013A0000E94060F20E038EB48E857E40E94060F41
:1013B00020E034E244E759E40E94A70D20919E0406
:1013C00030919F044091A0045091A1040E94360DD9
:1013D0002B013C0160939E0470939F048093A004B2
:1013E0009093A1048BE293E00E94430142E0C50187
:1013F000B4010E94650188E393E00E94430142E04A
:10140000C701B6010E94650185E493E00E94430193
:1014100042E0C301B2010E94650182E593E00E94AF
:10142000430142E0C501B4010E9465010E94AB0086
:1014300080E693E00E94430142E0C501B4010E94AE
:1014400065018DE693E00E94430142E0C701B601C9
:101450000E9465010E94AB0060E08EE10E947E0266
:1014600083E00E94640261E08EE10E947E0281E0DE
:101470000E9450025C0181E00E9450027C0180E0E9
:101480000E9450026C0184E98093BC00A11440EFDB
:10149000B40621F48AE793E00E941A02C11450EFC7
:1014A000D50621F48EE893E00E941A02E11480EF41
:1014B000F80621F482EA93E00E941A0260E087E7CE
:1014C0000E947E0284EF0E9464028EE20E94640207
:1014D00014E91093BC00A7E2B3E21197F1F700C042
:1014E000000060E087E70E947E0286EF0E946402AF
:1014F00061E087E70E947E0280E00E945002109324
:10150000BC0060E087E70E947E0284EF0E946402D4
:1015100084EF0E9464021093BC00E7E3F7EC31977C
:10152000F1F700C0000060E087E70E947E0286EFCE
:101530000E94640261E087E70E947E0281E00E94CF
:10154000350281E00E94350280E00E94350210934E
:10155000BC00EBA8FCA80DA91EA9E092D004F09253
:10156000D1040093D2041093D30485E494E00E9444
:10157000430185E494E00E94430180910001909131
:101580000101A0910201B0910301803D07E09007A5
:10159000A105B10558F0813A1FE09107A105B105F9
:1015A00048F080EA9FE0A0E0B0E004C080ED97E062
:1015B000A0E0B0E09C01AD01205D37404109510938
:1015C000A7E3B0E00E94DC0F20ED37E040E050E000
:1015D0000E94BD0FDA01C9010F96A11DB11D2D9604
:1015E0008CAF9DAFAEAFBFAF2D97C0900801D0902C
:1015F0000901E0900A01F0900B0190EDC91697E007
:10160000D906E104F10470F0A1EACA16AFE0DA06E7
:10161000E104F10468F050EAC52E5FE0D52EE12C1C
:10162000F12C06C040EDC42E47E0D42EE12CF12C65
:1016300086EB93E00E94430142E06BA97CA98DA94F
:101640009EA90E94650186EC93E00E944301809070
:10165000C4049090C504A090C604B090C70442E0B2
:10166000C501B4010E946501A7019601205D3740C4
:1016700041095109ACE3B0E00E94DC0F20ED37E0F6
:1016800040E050E00E94BD0FDA01C9014E97A10968
:10169000B1097C018D0166277727CB016E197F097F
:1016A000800B910B0E94510E2BA93CA94DA95EA95C
:1016B0000E94350D2B013C0126E933E44BE85DE344
:1016C0000E94060F2091C0043091C1044091C204D1
:1016D0005091C3040E94360D6B017C0120E030E084
:1016E00040EA51EC0E94A20D87FD11C020E030E0DD
:1016F00040EA51E4C701B6010E94010F18166CF4CC
:10170000C12CD12C20EAE22E21E4F22E06C0C12CFD
:10171000D12C30EAE32E31ECF32EC092C004D092EB
:10172000C104E092C204F092C304A50194016BA924
:101730007CA98DA99EA90E94350D26E933E44BE8CA
:101740005DE30E94A70D29966CAF7DAF8EAF9FAF72
:1017500029970BA91CA92DA93EA90093C404109395
:10176000C5042093C6043093C70420E030E0A901EB
:101770000E94060F4B015C0129E23CE54FE85DE366
:10178000C301B2010E94060FA50194010E94350D0C
:1017900061966CAF7DAF8EAF9FAF619720E030E078
:1017A000A901C701B6010E94060F9B01AC01619619
:1017B0006CAD7DAD8EAD9FAD61970E94360D6B0116
:1017C0007C0120E030E040E251EC0E94A20D87FD58
:1017D00011C020E030E040E251E4C701B6010E94B0
:1017E000010F18166CF4C12CD12C80E2E82E81E494
:1017F000F82E06C0C12CD12C90E2E92E91ECF92EE6
:1018000087ED93E00E94430142E0C301B2010E94D0
:10181000650184EE93E00E94430143E0C501B401F9
:101820000E94650183EF93E00E94430142E06BA9AF
:101830007CA98DA99EA90E94650182E094E00E9486
:10184000430142E029966CAD7DAD8EAD9FAD2997E9
:101850000E9465018BE094E00E94430142E0C501D3
:10186000B4010E9465010E94AB002D966CAD7DAD68
:101870008EAD9FAD2D970E944F0E2B013C01A7010D
:1018800096010E94350D0E94190E4B015C01709368
:10189000C9046093C804A7019601C301B2010E9464
:1018A000360D0E94190E7093CB046093CA04709396
:1018B000CD046093CC049092CF048092CE048091AA
:1018C000180190911901A0911A01B0911B01803D5E
:1018D0009740A105B10580F43092C9042092C80454
:1018E0003092CB042092CA043092CD042092CC04D2
:1018F0003092CF042092CE048091C8048093B3002C
:101900008091CC048093B4008091CE049091CF0458
:1019100090938B0080938A008091CA049091CB04AD
:10192000909389008093880089E194E00E944301AC
:101930004AE025966CAD7DAD8EAD9FAD25970E949A
:10194000AE000E94AB0084E394E00E9443018091CA
:10195000B3006AE090E00E94FA0084E494E00E9400
:10196000430180918A0090918B000E94790084E469
:1019700094E00E9443018091B4006AE090E00E94EC
:10198000FA0084E494E00E944301809188009091E1
:1019900089000E9479000E94AB0087E494E00E94D5
:1019A0004301ABADBCAD6D917D918D919D91BCAF6F
:1019B000ABAF4AE00E94AE0085E494E00E94430190
:1019C0000BAD1CAD0053114061F70E94AB0085E5E3
:1019D00094E00E944301A9ADBAAD6D917D918D91C6
:1019E0009D91BAAFA9AF4AE00E94AE0085E494E0B1
:1019F0000E94430109AD1AAD0851114061F70E94E0
:101A0000AB0085E694E00E94430160913001709143
:101A10003101072E000C880B990B4AE00E94F5005B
:101A20008FE697E10197F1F700C000000E945F0088
:101A30007B018C0121962CAD3DAD4EAD5FAD219764
:101A4000E21AF30A040B150B2596ECAEFDAE0EAFB1
:101A50001FAF25970E945F0021966CAF7DAF8EAFC0
:101A60009FAF21970E94AB00D0CA5058BB27AA272E
:101A70000E944D0D0C94C70E0E94B90E38F00E94C2
:101A8000C00E20F039F49F3F19F426F40C94B60EE2
:101A90000EF4E095E7FB0C94B00EE92F0E94D80EEF
:101AA00058F3BA17620773078407950720F079F493
:101AB000A6F50C94FA0E0EF4E0950B2EBA2FA02D7D
:101AC0000B01B90190010C01CA01A0011124FF27EB
:101AD000591B99F0593F50F4503E68F11A16F040E6
:101AE000A22F232F342F4427585FF3CF46953795E5
:101AF0002795A795F0405395C9F77EF41F16BA0BAA
:101B0000620B730B840BBAF09150A1F0FF0FBB1F57
:101B1000661F771F881FC2F70EC0BA0F621F731FA0
:101B2000841F48F4879577956795B795F7959E3FFD
:101B300008F0B0CF9395880F08F09927EE0F97958E
:101B4000879508950E948C0E08F481E008950E9404
:101B5000BB0D0C94C70E0E94C00E58F00E94B90E27
:101B600040F029F45F3F29F00C94B00E51110C9411
:101B7000FB0E0C94B60E0E94D80E68F39923B1F3B5
:101B8000552391F3951B550BBB27AA2762177307A3
:101B9000840738F09F5F5F4F220F331F441FAA1F37
:101BA000A9F335D00E2E3AF0E0E832D091505040F3
:101BB000E695001CCAF72BD0FE2F29D0660F771FA1
:101BC000881FBB1F261737074807AB07B0E809F087
:101BD000BB0B802DBF01FF2793585F4F3AF09E3F0C
:101BE000510578F00C94B00E0C94FB0E5F3FE4F3BB
:101BF000983ED4F3869577956795B795F7959F5F4F
:101C0000C9F7880F911D9695879597F90895E1E09A
:101C1000660F771F881FBB1F621773078407BA07F9
:101C200020F0621B730B840BBA0BEE1F88F7E09554
:101C300008950E94200E6894B1110C94FB0E089533
:101C40000E94E00E88F09F5798F0B92F9927B7515E
:101C5000B0F0E1F0660F771F881F991F1AF0BA9550
:101C6000C9F714C0B13091F00E94FA0EB1E00895A6
:101C70000C94FA0E672F782F8827B85F39F0B93F98
:101C8000CCF3869577956795B395D9F73EF4909503
:101C90008095709561957F4F8F4F9F4F0895E89481
:101CA00009C097FB3EF490958095709561957F4FA4
:101CB0008F4F9F4F9923A9F0F92F96E9BB27939552
:101CC000F695879577956795B795F111F8CFFAF462
:101CD000BB0F11F460FF1BC06F5F7F4F8F4F9F4F93
:101CE00016C0882311F096E911C0772321F09EE8F1
:101CF000872F762F05C0662371F096E8862F70E057
:101D000060E02AF09A95660F771F881FDAF7880F30
:101D10009695879597F90895990F0008550FAA0B86
:101D2000E0E8FEEF16161706E807F907C0F01216EE
:101D30001306E407F50798F0621B730B840B950BF1
:101D400039F40A2661F0232B242B252B21F4089546
:101D50000A2609F4A140A6958FEF811D811D0895E3
:101D600097F99F6780E870E060E008959FEF80EC4E
:101D7000089500240A9416161706180609060895F1
:101D800000240A9412161306140605060895092E57
:101D90000394000C11F4882352F0BB0F40F4BF2BC6
:101DA00011F460FF04C06F5F7F4F8F4F9F4F089506
:101DB00057FD9058440F551F59F05F3F71F04795FC
:101DC000880F97FB991F61F09F3F79F087950895E1
:101DD000121613061406551FF2CF4695F1DF08C000
:101DE000161617061806991FF1CF8695710561051D
:101DF00008940895E894BB2766277727CB0197F9C5
:101E000008950E948C0E08F48FEF08950E94190F18
:101E10000C94C70E0E94B90E38F00E94C00E20F03C
:101E2000952311F00C94B00E0C94B60E11240C9462
:101E3000FB0E0E94D80E70F3959FC1F3950F50E0F2
:101E4000551F629FF001729FBB27F00DB11D639F6C
:101E5000AA27F00DB11DAA1F649F6627B00DA11D12
:101E6000661F829F2227B00DA11D621F739FB00DB8
:101E7000A11D621F839FA00D611D221F749F332728
:101E8000A00D611D231F849F600D211D822F762FC1
:101E90006A2F11249F5750409AF0F1F088234AF09E
:101EA000EE0FFF1FBB1F661F771F881F915050400A
:101EB000A9F79E3F510580F00C94B00E0C94FB0ED8
:101EC0005F3FE4F3983ED4F3869577956795B79591
:101ED000F795E7959F5FC1F7FE2B880F911D9695AB
:101EE000879597F90895AA1BBB1B51E107C0AA1F4C
:101EF000BB1FA617B70710F0A61BB70B881F991FAB
:101F00005A95A9F780959095BC01CD01089597FB4E
:101F1000072E16F4009407D077FD09D00E94730FA6
:101F200007FC05D03EF4909581959F4F08957095DC
:101F300061957F4F0895A1E21A2EAA1BBB1BFD01DC
:101F40000DC0AA1FBB1FEE1FFF1FA217B307E40798
:101F5000F50720F0A21BB30BE40BF50B661F771FF0
:101F6000881F991F1A9469F76095709580959095D0
:101F70009B01AC01BD01CF010895052E97FB1EF416
:101F800000940E94D40F57FD07D00E949B0F07FCBE
:101F900003D04EF40C94D40F509540953095219574
:101FA0003F4F4F4F5F4F0895909580957095619585
:101FB0007F4F8F4F9F4F08950E94ED0FA59F900D6B
:101FC000B49F900DA49F800D911D11240895EE0FD4
:101FD000FF1F0590F491E02D0994A29FB001B39FDB
:101FE000C001A39F700D811D1124911DB29F700D22
:0C1FF000811D1124911D0895F894FFCF6D
:101FFC00B80B0000B80B0000B80B0000B80B0000C9
:10200C00B80B0000B80B0000B80B0000B80B0000B8
:10201C00B80B0000B80B0000B80B0000B80B0000A8
:10202C0001006F7666004932435F4552524F523A77
:10203C003A00205B4932435F616464726573733D9F
:10204C003078005D004932435F4552524F523A3A64
:10205C00556E737065636966696564204572726F4D
:10206C0072205B545753523D3078004932435F44E1
:10207C004154415F4E41434B004932435F4D525FE7
:10208C00414444524553535F4E41434B0049324304
:10209C005F4D545F414444524553535F4E41434B53
:1020AC00004932435F53544152545F4552524F5290
:1020BC00005374617274696E672E2E2E003E20439D
:1020CC006865636B696E67204261726F6D657465DC
:1020DC00722E2E2E003E20436865636B696E67205E
:1020EC00436F6D706173732E2E2E004D415B313A30
:1020FC00305D203D20306200444F5B323A305D2031
:10210C003D203062004D535B313A305D203D203034
:10211C006200474E5B323A305D203D203062004811
:10212C0053203D20004D445B313A305D203D203042
:10213C0062003E20436865636B696E6720454550BD
:10214C00524F4D2E2E2E003E20436865636B696EF8
:10215C00672045787465726E616C2050696E2E2E06
:10216C002E003E20436865636B696E672047797269
:10217C006F202620416363656C65726F6D657465B5
:10218C00722E2E2E00444C5046203D2030620047CB
:10219C0059524F3A3A46535F53454C203D203062DA
:1021AC00004143433A3A4146535F53454C203D204E
:1021BC003062004649464F5F454E203D203062005C
:1021CC005057525F4D474D545F31203D20306200D7
:1021DC005057525F4D474D545F32203D20306200C6
:1021EC0046696E697368656420636865636B696EC4
:1021FC0067204932432E0053657475702046696E12
:10220C0069736865642E00203E3E2000707573680B
:10221C00656420002C2067657420003E2061636398
:10222C005F616E675F783D002C206163635F616E58
:10223C00675F793D002C206163635F616E675F7A35
:10224C003D002C20646174612E616E675F783D00E7
:10225C003E20696D6D2E616E675F783D002C2069A4
:10226C006D6D2E616E675F793D00434F4D5041534C
:10227C00535F4F564552464C4F573A3A5800434FCE
:10228C004D504153535F4F564552464C4F573A3A77
:10229C005900434F4D504153535F4F564552464C96
:1022AC004F573A3A5A0043757272656E745F706993
:1022BC00746368203A002C507265766975735F7090
:1022CC0069746368203A00204572726F7270697489
:1022DC0063683A002C204552524F525F524154458C
:1022EC00443A002C43757272656E7470697463683D
:1022FC0020002C50697463684420002C20526174B7
:10230C006570697463683A20003E3E2050726F67B6
:10231C0072616D2054696D6520284B726F6E6F73FE
:10232C00293A20003E3E204F43522076616C756561
:10233C00733A20002C20003E3E20727856616C755A
:10234C0065733A20003E3E2072786C7056616C7555
:10235C0065733A20003E3E2064726F6E655F6D6F50
:06236C0064653A20000048
:00000001FF
